:20000000004000208D59010001C9011001C9011001C9011001C9011001C9011001C9011077
:1C00200001C9011001C9011001C9011001C9011001C9011001C901103FC9011089
:20003C002DE9F04F0F46BB88ADF12C0D022BB8BF4020C0F2C783BE6871783278DFF8DC82F2
:20005C00DFF8DC92DFF8DCA200254FF0010B402402EB012201460992491E1D2900F2A7835B
:20007C00DFE811F09A03820378035F0342031203F002A80287027302500239021602EA0119
:20009C00C4019601750138012801A503A503F200D0008D008100A5035B00A5032F001E00F8
:2000BC009B1EB61C03AA99B2304600F0B3FB002840F07E83B549099A102010F0BFFCC4B232
:2000DC007DE3DB1EF01C99B21AF004F8051C00F0768303A80090B8882A46C01E83B2002026
:2000FC00014600F09BFB002840F0628340460178502018F05BF8B17803AB099A0091BA4902
:20011C000190102010F09AFCC4B2002C40F050830498002840F002834AE3DB1EF01C99B2D1
:20013C0019F0D8FF051C00F04A8303A80090B8882A46C01E83B20020014600F06FFB0028FE
:20015C0040F03683B078BB49099A03AB0090102010F074FCC4B2002C40F02A8304980028AA
:20017C0040F0DC8224E39B1EB61C03AA99B2304600F058FB002840F01B83C349A5E003A860
:20019C00B61C9B1E0090324628469BB2014600F04DFB002840F00C834F463B68002B00F03C
:2001BC009F8240465646017834789946502017F0FDFF00949DF80C1001910290B349099A61
:2001DC004B46102010F03AFCC4B2B4B139689AF800202E460CE0B00000EBC60040188068DD
:2001FC0020B114F08BF939689AF80020761CF6B2B242F0DC386813F0B9F93D602F468AF854
:20021C000070D5E29B1EB61C99B2304619F062FF051C00F0D482B88803AA801E81B2284652
:20023C0000F008FB002840F0C382B549099A102003AB10F003FCC4B2002C40F0B9820598EA
:20025C00002840F06B82B3E29B1EB61C99B2304619F040FF051C00F0B28203A80090B88854
:20027C002A46801E83B20020014600F0E7FA002840F09E824F46386840B93C2019F06CFF71
:20029C003860002808BF132400F0928256463178052980F225828A004F1C03AC02EBC102A0
:2002BC001218F8B2307094E80B000024A34682E80B007DE29B1EB61C03AA99B2304600F05D
:2002DC00C1FA002840F07482B949099A102010F0B5FBB3E1B078F1781B1F321D9BB218F071
:2002FC00A7FE051C00F06B8203A80090BA88F178B078121F93B22A4600F0A8FA002840F061
:20031C00578240469DF8157001786FB19DF8140000280CBFBE49BF490BE0C046A12600202C
:20033C00600900205C090020502017F03FFF0090B949099A102003AB10F080FBC4B2002CAE
:20035C0040F036820498002840F0E88130E29B1EB61C99B2304619F0BDFE051C00F02F8258
:20037C00B88803AA801E81B2284600F073FA002840F01E82B249099A102003AB10F05EFB0B
:20039C00C4B2002C00F0CA8112E2C0463D7E010003A8B61C9B1E0090324628469BB201466E
:2003BC0000F05CFA002840F003829DF81030B4480DF11102022100F055FA002800F0908191
:2003DC00BDF80C00012840F08B81BDF80E004FF6FF71814240F0848140460178502017F0F5
:2003FC00E5FEA849034625E1CDFF0010022B07DD9B1EB61C99B2304619F06CFEBB88054684
:20041C00022B02D0002D00F0DA819B1E284603AA99B200F02BFA002840F0CA81B149099AD5
:20043C00102003AB10F00AFBC4B2002C00F07681BEE1C046450001109B1EB61C99B23046ED
:20045C0019F048FE051C00F0BA8103A80090B8882A46801E83B20020014600F00BFA0028A3
:20047C0040F0A68140460178502017F09FFEB849099A009003AB102010F0E0FAC4B2002C68
:20049C0000F04C8194E1C04625900110A5F30000022B07DD9B1EB61C99B2304619F01AFE2C
:2004BC00BB880546022B02D0002D00F088819B1E284603AA99B200F0E1F9002840F0788133
:2004DC00B449099A102003AB10F0B8FAC4B2002C00F024816CE103A8B61C9B1E009032460E
:2004FC0028469BB2014600F0CDF9002840F0608140460178502017F059FEB44947E1C046F7
:20051C00FD8F0110022B07DD9B1EB61C99B2304619F0E0FDBB880546022B02D0002D00F035
:20053C004E819B1E284603AA99B200F0AFF9002840F03E81A649099A102003AB10F07EFA1A
:20055C00C4B2002C00F0EA8032E103A8B61C9B1E0090324628469BB2014600F09BF9002884
:20057C0040F0268140460178502017F01FFE99490DE19B1EB61C99B2304619F0ABFD051C07
:20059C0000F01D81B88803AA801E81B2284600F085F9002840F00C818F49099A102003ABD9
:2005BC0010F04CFAC4B2002C00F0B88000E1C046ED8F011003A8B61C9B1E009032462846EF
:2005DC009BB2014600F04AF9002840F0F1809DF8103082480DF111040221224600F042F907
:2005FC00E0B99DF810307E480221224600F03AF930B940460178502017F0D8FD7949C6E061
:20061C0040460178502017F0D1FD77490CE0C046F7800100CD800100CDA101004046017894
:20063C00502017F0C3FD7149BDF80E2000920190BDF80C30099A102010F000FAC4B2B7E0DC
:20065C00BD8F01109B1EB61C99B2304619F042FD051C00F0B480B88803AA801E81B228461C
:20067C0000F020F9002840F0A3806149099A102003AB10F0E3F9C4B2002C4FD098E0C04694
:20069C00A8CC01000579010003A8B61C9B1E0090324628469BB2014600F008F9002840F0C1
:2006BC0087809DF810305A480DF11102022100F0D9F8A8B1BDF80C00012811D1BDF80E00C3
:2006DC004FF6FF7181420BD140460178502017F06DFDBDF81410009101904649069BA9E70F
:2006FC00022465E0918F01109B1EB61C99B2304619F0F0FC051C62D0B88803AA801E81B2F0
:20071C00284600F0D7F8002852D13B49099A102003AB10F093F9C4B2002C49D14FF0000BAE
:20073C0046E003A8B61C9B1E0090324628469BB2014600F0C3F800283AD1404601785020EA
:20075C0017F034FDBDF80E1000912C496FE7C0464D7201009B1EB61C03AA99B2304600F067
:20077C00B1F828BB264920E0B61C9B1E009603A82A460193234902901346102010F05EF9B4
:20079C00B0B940460178502017F010FD1E4900900BE0C046518F01109B1EB61C03AA99B2F5
:2007BC00304600F093F818B9184903AB42E75C462DB1BBF1000F02D0284613F09FFE2046A2
:2007DC0018F09CFD0BB0BDE8F08FC046D1A101002D8F0110D5A10100F18E0110BCCC0100A7
:2007FC00AECC01008BA001002181010049840100BD8E0110D51F0100818E0110BD990100FD
:20081C00598E0110815C011081720100398E0110A8CC0100DFF800F065600110DFF800F031
:20083C0035600110DFF800F011600110DFF800F0FD5F0110DFF800F0C15F0110DFF800F0BA
:20085C00795F0110DFF800F0A55E0110DFF800F0755E0110DFF800F0495F0110DFF800F0C6
:20087C00E55D0110DFF800F011610110DFF800F0315F0110DFF800F0155F0110DFF800F044
:20089C00FD5E0110DFF800F0D15E0110DFF800F0715E0110DFF800F0515E0110DFF800F0D4
:2008BC002D5E0110DFF800F0915D0110DFF800F0415D0110DFF800F0E15C0110DFF800F068
:2008DC00BD5C0110DFF800F0A15C0110DFF800F05D5C01102DE9F04F0F46BB888246ADF119
:2008FC00340D184699460228B8BF4020C0F20183BC6862782178B64E4FF00008402501EBF4
:20091C0002210A9101223178099252461D2A26DC1D2A00F0B2810C2A12DC0C2A00F05F8220
:20093C00921E00F0AF82921E00F09482921E00F0C782921E00F07C82921E00F06282B7E270
:20095C000E3A00F02382921E00F0B482921E00F0F181121F21D0521F00F0C081A8E23A2A04
:20097C0012DC3A2A00F09D80303A00F06C81921E00F06981921E00F05381921E00F02A816C
:20099C00921E00F0FC8093E23C3A77D0921E62D0921E35D0921E40F08B829B1EA41C99B2A5
:2009BC00204619F097FB5FEA000800F09F8203A80090B8884246801E83B200200146FFF785
:2009DC003DFF002840F08A823178BAF1160F04D1502017F0EBFBBF4903E0502017F0E6FB6D
:2009FC00BD490A9A009003AB102010F027F8C5B2002D40F073820598002840F0ED816DE229
:200A1C00801EA41C81B2204619F064FB5FEA000800F06C8203A80090B8884246801E83B256
:200A3C0000200146FFF712FF002840F057823178502017F0BBFBBD490A9A009003AB10200D
:200A5C000FF0FCFFC5B2002D40F048820498002840F0C28142E2801E03A9A41C83B20091B7
:200A7C00224640460146FFF70DFF002840F036823178502017F09AFBAD49D3E1801E03A96A
:200A9C00A41C83B20091224640460146FFF702FF002840F023823178502017F087FBBA49E6
:200ABC00C0E1022840F31A82A778002F65D0062F63DA3846810001EBC00188B219F04CFB55
:200ADC0000280B9057D0BA00414602EBC70210F0EBFA002F08BFC14629D0E41CBB46C14636
:200AFC0023787BB11B1D641C5FFA83FA2046514619F0F0FA5FEA000808BF132517D05346C5
:200B1C00024603E0641C042322469A460B994FEA890000EBC9004018009000200146FFF740
:200B3C008DFE544409F10109BBF1010BD8D1484687420ED13178502017F038FB009709994F
:200B5C000A9A0B9B0191B949029010200FF076FFC5B2002D00F0C2814FB10B9C204600F190
:200B7C000C04806808B113F0C9FC7F1EF6D10B9812F0FCFCB2E11325B0E10225AEE1801E2F
:200B9C0083B20998A41C2246014618F051FA5FEA000800F0AB8103A80090B888801E83B2E6
:200BBC00099842460146FFF751FE002840F09681BE490A9A102003AB0FF040FFC5B2002D8A
:200BDC0040F08C810498002840F0068186E1C046A1260020801EA41C81B2204619F07AFA79
:200BFC005FEA000800F0828103A800900999B8884246801E83B20020FFF728FE002840F089
:200C1C006D81BD490A9A102003AB0FF017FFC5B2002D40F063810498002840F0DD805DE1E6
:200C3C00801E03A9A41C83B20091224640460146FFF714FE002840F051813178502017F041
:200C5C00B5FAAE49EEE0062840F04881E278A07867792679BAF1300F00EB022B06EB0729C9
:200C7C0004D1502017F0A2FAA54903E0502017F09DFAA4495B464A4629E1C01EE21C81B25A
:200C9C00104619F027FA5FEA000800F02F8103A80090B8884246C01E83B200200146FFF754
:200CBC00BDFD002840F01A813178502017F07EFAA17803AB0A9A00919349019010200FF03B
:200CDC00BDFEC5B2002D40F009810498002840F0838003E1B9A10100BDA10100C01EE21C6E
:200CFC0081B2104619F0F6F95FEA000800F0FE8003A80090B8884246C01E83B2002001461B
:200D1C00FFF78CFD002840F0E980A0787F490A9A03AB009010200FF091FEC5B2002D40F023
:200D3C00DD800498002857D1D8E0C046C1A10100C5A10100801EA41C81B2204619F0CAF903
:200D5C005FEA000800F0D28003A80090B8884246801E83B200200146FFF778FD002840F0E4
:200D7C00BD803178502017F021FA69490A9A009003AB10200FF062FEC5B2002D40F0AE80BA
:200D9C00049848BBAAE0C046C9A10100801EA41C81B2204619F09EF95FEA000800F0A6809F
:200DBC0003A80090B8884246801E83B200200146FFF760FD002840F091803178502017F0FE
:200DDC00F5F954490A9A009003AB10200FF036FEC5B2002D40F08280002009907EE0801E9C
:200DFC0003A9A41C83B20091224640460146FFF749FD002872D13178502017F0D7F946494A
:200E1C0010E0801E03A9A41C83B20091224640460146FFF73FFD002860D13178502017F016
:200E3C00C5F93E49009003AB53E0C046A5F30000801E03A9A41C83B200912246404601463D
:200E5C00FFF70CFD002849D13178502017F0AEF93349E7E7801E03A9A41C83B200912246EC
:200E7C0040460146FFF72AFD002837D13178502017F09CF9BDF80E10009101902949BDF86B
:200E9C000C3026E0A41C4246801E2749009403AF13460190102002970FF0D0FDF0B9317887
:200EBC00502017F083F92149BCE7C046CD800100099D13E0502017F079F91D49034608E0A9
:200EDC00502017F073F9A9F10202A31C1949009201900A9A10200FF0B1FDC5B2B8F1000F81
:200EFC0004D0099810B1404613F008FB284618F005FA0DB0BDE8F08FF78001008BA001001A
:200F1C004984010021810100CDFF001045000110CDA101004D720100D1A10100D5A10100F9
:200F3C0093A00100BD990100815C01108172010005790100D51F01001D4838B50468B4F151
:200F5C00FF3F08BF002418F032FF2448244B194A002501211038056003F15C00164B0160CF
:200F7C0018681160806C80471448006820B11448006820460EF09CFC124813490560134CE2
:200F9C000A686FF35B4244EA0200086010490868C0F30130012806D10A680E48104040F433
:200FBC0000320A6008600C4908680028FCD138BD1C13005008220443F00100108001284385
:200FDC00000120438C210840482003400000390104000940FFFFFCFC0C0068429404604284
:040FFC0000600C4045
:20100000B41200001810000015AB0110FDB301106DC00110FDAE011099B5011059BA0110D3
:0810200039BA01102D00000097
:20102800B01200003C100000B1C00110A9BF011067C0011069B80110B9B9011099B901104F
:041048003000000074
:20104C00B012000060100000BDC00110CDB30110D9BD01106DB301108DB80110D9B9011062
:04106C00310000004F
:2010700000000000340A002004000000000000000000000020000000E8C9011030000000EC
:20109000281000003C0A00200400000000000000000000000C000000D8CA011018000000C7
:2010B0004C100000440A002004000000000000000000000024000000F0CA0110180000004B
:2010D000000000004C0A00200400000000000000000000001000000018CA01102C00000057
:2010F000001000005C0A0020040000000000000000000000200000006CCA011024000000BB
:20111000FFFFFFFF640A00200400000000000000000000002800000090CA0110240000007A
:20113000FFFFFFFF6C0A00200400000000000000000000001400000008CB011018000000F9
:20115000FFFFFFFF740A002004000000000000000000000058000000B4C9011034000000C7
:20117000FFFFFFFF7C0A00200400000000000000000000001000000020CB01101800000095
:20119000FFFFFFFF840A00200400000000000000000000001C000000B4CA011024000000C2
:2011B000FFFFFFFF8C0A00200400000000000000000000003800000044CA011028000000EA
:2011D000FFFFFFFF940A00200400000000000000000000005400000078C901103C0000005F
:0811F00001000000C0BD010078
:0411F80001000000F2
:0411FC0000000E00E1
:0412000000000F00DB
:0412040032000000B4
:0412080001000000E1
:04120C00F4080020C2
:0412100000020000D8
:0412140000000000D6
:0412180001C90110F7
:04121C0000000000CE
:0412200000000000CA
:0412240008000000BE
:0412280000002200A0
:04122C00180700207F
:0412300000000000BA
:0412340000000000B6
:0412380008000000AA
:04123C005C0800202A
:0412400000000000AA
:0412440000000000A6
:04124800080000009A
:04124C00000000009E
:04125000000000009A
:041254000000000096
:041258000000000092
:04125C00010000008D
:04126000B4070020AF
:041264000600000080
:041268000100000081
:04126C0094050020C5
:04127000000000007A
:041274000000000076
:041278000002000070
:04127C00000000006E
:02128000290043
:02128200010069
:02128400250043
:02128600300036
:02128800310033
:02128A002D0035
:02128C0001005F
:01128E00015E
:081290000300000050BD010045
:0812980000000000000000004E
:0412A0000000010049
:0412A4000000030043
:0412A80013C401105A
:0412AC006D98010038
:0412B000B812000070
:0412B400B81200006C
:0412B8000000000032
:0412BC00F80900200D
:0412C000619B01002D
:0412C4002000000006
:0412C800C8BC01009D
:0412CC001CBB010046
:0412D00029C101101F
:0412D4009B3B01003F
:0412D800474D01007D
:0412DC00A1C7011095
:0412E000A3C701108F
:0412E4000000000006
:0412E800EDBC010058
:0412EC0090B90100B4
:0412F000A8B9010098
:0412F40078B90100C4
:0212F8000200F2
:0212FA000900E9
:0212FC000100EF
:0212FE000000EE
:0113000001EB
:04130400719A0100D9
:04130800396F010038
:04130C00718A0100E1
:04131000C1750100A2
:04131400A76F0100BE
:04131800A5570100D4
:04131C002DFC0000A4
:041320001F9E01000B
:041324007D3901000E
:0413280015C70110D4
:04132C0025C70110C0
:201330002DE9F04F85B0804611F8010BDFF88037DFF880B70090A0F1020EBEF1150F08F19F
:20135000FD0208F1E70508F59E7608F20D1A08F5B07408F1660908F5C67700F29783DFE8D1
:201370001EF000019503160045004800750395039F0095037700CE007A007F000901C001C3
:201390000102F6007F03BC02BC020802720208F1A0060822304619F02BFB0746082130466E
:2013B00019F022FB08F1980404223946204619F01FFB0421204619F017FB00204142414466
:2013D00008EB000291F89F1082F8BF10401C0828F4DB08F1C702314608F1D70019F000FB1F
:2013F00001202870002189F806105EE30120E8745BE3697BA87D012900F010000DD130B17E
:20141000002070713168B079490810F08BFF98F80600002119F0E0FA0FE040B13268DFF833
:20143000980608F5A1735208414618F0CBFD98F806000122002119F0CBFA012089F80000F2
:20145000404614F0CDFB012189F80610E9732CE30121297429E30878A8730121297524E3D9
:2014700099F80600002863D0A87D050758BF0E2071D503F1090600205B1C0D5C345C2543B3
:201490000D541C5C25401554401C0828F5DB99F8000008B90921C4E2404610F00DFFFAE2A9
:2014B000002003F109070E5C17F800C04CEA06060E5403F1010E1EF8009006EA0906165409
:2014D000401C0828EFDB02206875E97D080703D440F64800A081E08158788106BFD52089C7
:2014F0001B2804BF60891B2807D1A089B0F5A47F04BFE089B0F5A47FB1D0142191E29AF832
:201510000000012811D011F8012B8AF8032008F58970022219F06CFA0146022208F58A70EC
:2015300019F066FA01218AF8001099F80600002800F0D9819AF80200002890D199F80010B7
:2015500009B90C216DE2404610F006F8A3E2A87DC10658BF122040F19982404613F076FBB9
:2015700099E208788AF80B0000218AF80A10FF22F021F1E0AB7D980721D599F8100001288C
:2015900004BF99F811000F280BD099F8150010B199F811201AB199F81C20012A03D15807A5
:2015B0000DD52322CFE018B199F81100012804D008F18602907A012807D1580703D40F21EB
:2015D0008AF80C1064E22A22BDE008784A7800EB0220B081CA78887800EB0220F0814A792B
:2015F000087900EB02203082CA79887900EB02207082087A30754A7A887A02EB0022F282E8
:20161000C87A0A7B00EB022030838A7B487B00EB022070830A7CC87B00EB0220B0838A7C5C
:20163000487C00EB0220F0830A7DC87C00EB02203084487D897D00EB0120708408F5AA70E8
:201650000490F18A0391307D0290B8F808100191708A0090338AF289B18940460FF0E8FCD9
:2016700028B1A87D410758BF0F2066D56AE008F18600F18981800023328AC2800222718A0F
:20169000018102704380B8F83410C91DA9F81E10B8F832208188B1EB520F02BFC188B8F818
:2016B0003420914202BF0089B8F83610B0EB111F15D099F8150020B10F2189F81A10FE2192
:2016D000AFE1FC21404610F055FD708A0090338AF289B18998F8060019F076F9E5E1002184
:2016F0009FE18E78C8780C798A7906EB0026487904EB0024C87902EB002701F10B020492B7
:20171000A3B2487A8A7A00EB022080B20390087A0290B8F808200192BAB2009291F800C006
:2017300048780CEB002081B2B2B240460FF080FC58B1A87D410758BF0F2040F1A78140468F
:2017500012F008FC1E220F2131E008F18600FF228680C48007810021404605B0BDE8F04F40
:201770000FF028BC0878207001204978617070729BE1E87DC20758BF1620DED599F8110085
:2017900016281ABFBA79012A23220FD0002818BF01280AD00F281CBF99F81C0001281EBFD9
:2017B00008F18602907A012807D12A221621404605B0BDE8F04F15F0BBBA4A78087802F03D
:2017D0000702104008707A7B02401CBF501E0242FA720CD0520704D5B87B10B10421F97266
:2017F00005E0F97A022001420CD14008FBD1F87AB97A884204BF0020F872F87A20B9002103
:2018100039811EE0F872F2E7B8F83400C01D3881F87A042803D1404611F0C2FFA083012342
:20183000F87A3871A28BB97B13F028FE218B814206D3A28BB97B3879012313F01FFE01460E
:2018500079801821EDE04A78087802F0070210400870FA7A02401CBF501E0242FA720CD0E9
:20187000520704D5B87B10B10421F97205E0F97A022001420DD14008FBD1F87AB97A884284
:2018900004BF0020F872F87A28B900213981B87A0DE0F872F1E7B8F83400C01D3881F87A70
:2018B000042803D1404611F07BFFA083F87A3871A28BB97B3879012313F0E0FD218B814254
:2018D00006D3A28BB97B3879012313F0D7FD01467980387B40F02000D6E0142804BF99F889
:2018F0000600002806D13D2101208AF80B108AF80A00DAE00A78487802EB0022628288783C
:20191000CA7800EB0220E0824A79087900EB022020828879C97900EB0120A08208F5B07184
:2019300008F5B0708A8AC089B97A904288BF1046042905D140F691229042B8BF4FF429607A
:20195000E28BE0839042B87A14BF01250025042805D1404611F024FFA28B90420AE008F5F3
:20197000B07008F5B0718089CA8AA18B904288BF1046884214BF01210021A0830D4308F5D1
:20199000B07008F5B07100894A8A218B904288BF1046884214BF012100210D432083A28B81
:2019B000B97BB87A012313F069FD218B814206D3A28BB97BB87A012313F060FD0146798085
:2019D00008F5B07008F5B0724189108A628B814288BF01466183914298F8063014BF0120A8
:2019F000002005438A4235490A6802EB4311628B8041121DC00F0A7610B1404615F0D4FC2A
:201A10000098142818D145B1E08B0090638BA28B218B98F8060018F0D3FF99F8000030B957
:201A30001521404605B0BDE8F04F10F0A3BB152140460EF037FC2EE01DB1387840F0080032
:201A50003870397841F0200139702EE008780F2809D0122804D0142808D016280ED024E042
:201A70000021317121E0012030721EE0387840F00200387040F01000387016E0387B40F086
:201A90000200387340F0100038730EE08AF80C00404612F093FB40B99BF8000005B0BDE826
:201AB000F04F4FF480410AF02FBE05B0BDE8F08FA02500206E4F0020F514010060260020A1
:201AD0002DE9F0438C68C54EC549DFF81883337891F800903B2815464FF00007ADF1C40DEF
:201AF00020DC3B2800F0EB8131280EDC31287AD0002800F050810A38092835D9253800F07E
:201B1000F881401E00F088805DE1363800F0C781401E00F0EA81801E00F0E181401E00F00B
:201B3000D98150E1DFF814C3602810DC602800F071813C3800F0BC81401E00F0B2810B3819
:201B5000022840F2AC810938072819D93BE1613800F05381401E00F04781401E00F03781F5
:201B7000401E00F032812EE1DFE810F06A026B0061022D0144021C0214020A02DA01CC01E8
:201B9000DFE810F019008B017C0170016B0108005E0152010095CE49227866461020F31D83
:201BB0000EF052FFC7B227B92078B0712878401C9DE100209BE14BB9D049D14A10203B46B5
:201BD0000EF042FFC0B208B90120307020790090D14A6178E778A678207800EB012006EB93
:201BF000072401463CE122784FF6FF70FF2A08DA062A06D0092A04DAC84910200EF024FF74
:201C100080B24FF6FF71814208BF022706120221297045466E706AE12278A1786078082AD5
:201C300000EB012307D0062A00F03981092A80F23681D6490AE2D64910201A460EF004FFBD
:201C500008E206AD3946A42228460FF033FA61782078A61C16F8013B16F8014B8DF81C3050
:201C700000EB0120ADF8180010228DF81D40A81D31460DF099F806F11004102205F1160064
:201C900021460DF091F804F1100616F8010B10228DF83E00314605F127000DF085F806F128
:201CB000100414F8010B14F8016B20228DF84F0005F1390021468DF850600DF075F82034D1
:201CD000202205F1590021460DF06EF804F12006202205F1790031460DF066F806F12004E0
:201CF00014F8010B14F8016B14F8011B8DF8B1003D468DF8B860080131F07F0618BF01251A
:201D10002D9BCE4A267801F00F01002E02EA030300F4807641EA030100F4C06046EA0103B3
:201D300023F4606340EA030040EAC52020F470402D9008BF3C1C2BD0641C14F8010B14F83E
:201D5000016B8DF8100014F8015B8DF8116014F8013B8DF8125020788DF81330010130F063
:201D70007F0618BF0127059B01F4807600F00F001A4001F4C06504AC104346EA000222F486
:201D9000606245EA020141EAC72121F470410591B24A06A964E004A8394606220FF08AF90C
:201DB000A01C04A9062216F0B9FDA51C00B93D464946502016F000FA61780091A8490195D9
:201DD0002278034642E1012744E1A64983E0A0786378A549227803EB002337E1A0260020C4
:201DF000A126002016220020E07900909F49257A607A05EB0025601CE1E76646F01D0090A8
:201E10009B492278637810200EF01EFE6178B171032610E0E178A078964A00EB012000900E
:201E3000657820782C46DCE6934922784346182610200EF009FE2E700BE1C0461022002095
:201E5000E2782078A67865788C4900EB026000EB064000EB05200346EEE62178884A641C1A
:201E7000204649E06346D81D03F10907009085490197247805269B1D2246D9E7E178A07813
:201E900000EB012000902079617900EB01207E490190257860780646C7E07C491BE002276E
:201EB000D8E02078E279611C13F050F80746D1E07749CDF8008004F120031026DCE704F196
:201ED0004000744A009004F1200011462546E2E7116B0100704910200EF0B6FDB9E05020A4
:201EF000494616F069F96D49B5E7384602272870B0E06B4A2178601C0C46E6E77D960100BD
:201F1000D9090100A1786078674A00EB01200090644923789AE0C046C99000006596010073
:201F3000A01C821C931C9D1CA91C11F8016B8DF81A6009788DF81B105C496678247804EB57
:201F50000624ADF810404478007800EB0420ADF812001078547800EB0420ADF814005A786A
:201F7000187800EB0220ADF8160028786A7800EB022004AAADF8180010200EF065FD68E027
:201F90004B49A01C821C931C9D1CD6E7B17101007F14010062782078464900EB0225A0783C
:201FB0002A460EE765782678A41C14F8017B14F8018B04A8102221460CF0F6FE10346178FF
:201FD0002078A31C00EB0120ADF8200019680DF1220211605C68546013F8080F324604ACF3
:201FF000CDF8008001268DF82A00334901943B46029629E060782578A41C14F8016B1022A4
:2020100005EB0025214604A80CF0CEFE1034E1782078A778637804AA00EB01602749009295
:2020300000EB074000EB032008903046B8E7637820782349A21C00EB0320C2E600FEFFFF54
:20205000204965782278A37802EB052210200EF0FBFCC7B2F8B231B0BDE8F083F9DC00004B
:20207000D5B40000239B01003D9B01004F9B0100D96A0100053E0100D50D010065FE000076
:20209000D5B10000155A01001D44010055880100897901100D790110C5780110BD780110BC
:2020B000F55D01005D3E0100C58D010025D700001D010100C11701107D180110AD16011050
:2020D000ED170110D15901002DE9FC47040006D1002016F05FFE02E0204611F03BFF04F181
:2020F0006605687D002800F0EF81687CDFF87C15002804F1860604F1EC0704F5897904F527
:20211000A27A04F5C67849D001285ED0022835D0032865D0062800F0A180072800F0CA81B4
:20213000082800F0CB80092800F0D7800A2800F0A8800B2800F0B2800C2800F0D8800F285A
:2021500000F0F580112800F02881122800F0E780142800F07981152800F09D81162800F008
:202170002581182800F04F81F02800F0AF81FC2800F0A981FE2800F0B381A9E7287C01288C
:2021900008D1C87808B900F029BA204611F0E2FE16218DE1204611F064F92BE2287C0128F8
:2021B00040F0B381C878002800F0B68170883178400070804900B08831704000B080012197
:2021D000308900013081297786E7287C012840F0A981C87800281CBF0121B172F4D1A5E17D
:2021F000287C012840F0A581887848B19AF80200012805D100218AF8021020460FF0BAFF4D
:20221000B87B01280AD10021396079600122B2730621FF2220460EF0CDFE60E7F87B012842
:2022300017D1204611F096FE0020B07301212970204613F0D5FC0120A87100217973797A39
:20225000A07906291ABF00221A21002218F0C0FB45E799F8050001283ED075E1287C0128EF
:2022700040F07981B87A012811D1204611F072FE002038723873F872B873B872F873787386
:202290002DE7287C012840F07581F87A012840F06B810021B173FF220B21BBE7287C01286F
:2022B00040F071818878002800F07181FF220321B0E70022222118F08BFBF8E0287C01286E
:2022D00040F07481387C022804F1FD0240F07781A179002018F070FBFEE6287C012840F041
:2022F0007981887800285ED0608CE083F4E6287C012804F20D1140F078810A78012A40F06E
:202310007B814878012809D1B9F8020000900020CA78B9F80030A17918F04AFBDCE6287C9B
:20233000012840F07A81887800283CD0D4E6287C012840F076819AF80100012817D19AF821
:202350001C000F281CBF002016F024FD00208AF801009AF81D001A2802D1FF22002159E70F
:20237000002100910023002218F01EFBB4E69AF80200012808D100218AF8021023220F21DB
:20239000204614F0D5FCAAE69AF80000012840F0258100218AF800103BE7287C012840F0FF
:2023B0004481C878002800F0198195E6287C012840F03F8198F80C00810602D5FF221821CA
:2023D00028E7C10714D59AF81C0016281CBF002016F0E0FC98F80C0000F0FE0088F80C004E
:2023F0000123A1799AF81D0001220BF0AFFA73E6810749D500F0FD0088F80C000123A17963
:2024100001221A20F1E7287C012840F01781C878002800F0188198F80C1098F80B0058B999
:20243000880610D501F0DF0188F80C10002098F80A20A1791346D8E701F0DF01012088F82E
:202450000C1088F8060047E6287C012840F0038198F80000810604F5B37614D500F0DF002B
:20247000010788F800000BD500F0F70088F80000308B0090B38AF28A718AA07918F0A0FAC3
:202490000020307028E6810740F1A88000F0FD0088F80000F4E7287C012840F0E1808878D7
:2024B0000028EFD1288B401E288380B258B92221204611E0204611F081FE012803D10BE6B7
:2024D000002016F067FC0020BDE8F687497A00292046F8D099F8061016F095FB0120F3E7CF
:2024F000A87E0F28ECD1FF22FC2120460EF062FDBAF80A000090BAF80830BAF80620BAF8F1
:202510000410A07918F060FADDE720460CF0B0FB2874E88A2883D6E76089E98B884200F0BE
:202530009880D0E720460FF02FFBF1E76089B189F4E720460DF00CF828740021E88A288316
:20255000B9730020F873BFE7288B401E288380B2002822D0B7E7204612F08AFA28740021BF
:20257000E88A2883B972AEE7288B401E288380B298B1A8E7204612F0A3FA28740021E88A74
:202590002883F9729FE7204610F072F9C0E7288B401E288380B2002895D1397AA0790129A5
:2025B0007FF487AE222118F017FA80E720460FF04DFE28740121E88A2883397483E7288B4B
:2025D000401E288380B20028F8D1A179222018F0F3F96CE720460FF06FFE99E7288B401EB9
:2025F000288380B20028F4D06DE701228A7020460EF0B2FF287466E7288B401E288380B2A5
:202610000028F8D1B9F8020000902220CA78B9F80030A17918F0CCF949E7204612F0EFFAA9
:2026300076E720460BF0ACFF72E7204610F02CFE6EE7204616210BF009FD69E72046182156
:202650000BF004FD64E72189B8F80800491C8842D1D128212CE7204614210DF023FE57E79D
:20267000204615210DF01EFE52E700BF5C4D002070B505462C6808E02646B06808B117F0A4
:2026900045FB3468304617F041FB002CF4D1A868806908B117F03AFBA86817F037FB2846FF
:2026B000BDE8704017F032BB2DE9F843DFF864540646286A0F46410202D4E879042829D00F
:2026D0003168B268086828B98B689361084617F01DFB1FE0D08A30B117F008FBB16888614C
:2026F00008B913203BE0B0683468D0F81880227942B1A168404616F0F5FFA06817F006FB80
:2027100020798044D4F80090204617F0FFFA5FEA0904ECD1B068017801F09F010170B068CC
:2027300001780F430770B0680278110716D48369002B1EBFC28AE87904280FD01F2AA8BF57
:202750001F226946012011F037FE00B10078E979884203D0084208BF352000D00020BDE8FF
:20277000F2832DE9F84FDFF8AC536A7A0146287E82421FD2A87E2B6B2E880FF2A0380FF2CF
:20279000A83B424303EB020900270C46F30709D518F807001BF807A021185246484616F041
:2027B000A1FFD14476087F1C0C2FEFDB687A401C21466872AB6B3BB1286A420204D56A6B31
:2027D0004FF48000984702E0084617F09FFA687A297E88420CD1AB6B53B1286A010207D5BC
:2027F0006A6B01B0BDE8F04F00214FF400001847BDE8F18F70B50446DFF81853A068EB7E55
:2028100002780E46297F0A4019408A4208D195F9061011F1800F07D090F90C00884203DAA2
:202830002046BDE8704023E7082016F089F860B1D021017012224670827044600146BDE835
:202850007040B548007816F045BBA86B38B12046FFF70EFF6A6BAB6BBDE8704006E170BD84
:202870002DE9F8430D46AB4E6A88706A0024914602F01F0878B381680B7803F01B0708F027
:202890001B0E774501D1120625D51B0719D45FEA087216D5897A69738268517BFF290AD00B
:2028B000A9740622836803F10E0105F1130016F019FF48F00408B188706A4A0504D400210F
:2028D00006E0B1880A0502D5FFF7D2FE02E04021FFF790FF7462306A410202D4F079042837
:2028F00022D00C2017F002FA040016D1706A18B1FFF7BEFE00207062B36B23B1726B002185
:202910004FF000409847D5F81A0008B117F0FEF92846BDE8F24317F0F9B900202060697E23
:202930002171D5F81A00A060716A002943D10C2017F0DCF9706220B31C2017F0D7F9716A5B
:20295000886028B9084617F0E1F90020706218E0FF27477006220021801C17F03DFC706AA9
:2029700080684773062200210E3017F035FC706A8268002111707F2281688F728168CA72D0
:2029900090B934B1A06808B117F0C0F9204617F0BDF9284617F0BAF9B36B002B64D0726BD3
:2029B00001B0BDE8F04361E081680022CA828A614460046005E0486818B104604868026817
:2029D0004A60706A81680A7848EA02020A702979FF2906D0806841700622691D801C16F0BF
:2029F00081FE706A8168EA7A0A722B7B4B726A7BFF2A18BF8A7295F90E107F291CBF826848
:202A1000D1728268E97B11738068298A8182A97CFF2906D04173062205F113010E3016F0A6
:202A300061FE706A8168687ECA8A8218CA82316A480207D4F179042904D1D5F81A0008B178
:202A500017F064F9284617F061F919F0600F0BD1B188706A4A0503D40021FFF7CBFE01E0E5
:202A7000FFF706FE00207062BDE8F18300214FF00040184738B5002408380528254D40D83A
:202A9000DFE800F00F150306090C4FF4001030E04FF480102DE04FF400202AE04FF480209A
:202AB00027E0286AC1032CD54FF4803021E0686A08B1FFF7DDFD022017F072FFA86A17F0A6
:202AD00025F9E86A17F022F9286AAC628103EC6217D5022017F00AF9040006D0697E217078
:202AF0004FF400306A7A627003E015F099FE4FF00040AB6B2BB16A6B214601B0BDE83040AB
:202B1000184731BD03498B6B1BB10E2801D14A6BACE77047680600205D4F002000010208DE
:202B3000090A0B0C0D0E141601010601010101010106020238B50546FFF7B6FD04000FD03A
:202B50002846FFF795FD132C12D10A48836B7BB101B0BDE83040426B00214FF0004018476F
:202B7000A868FFF7FEFD2846BDE8324017F0CEB831BD00BF680600202DE9F84FDFF8B014FF
:202B9000086817F009FF040000F050822079032840F04C82DFF89C144878C10640F140821D
:202BB000DFF894241368187B002803D0042016F061FB002800F0348204F10807202017F8C6
:202BD000018B17F09BF8060000F026824FEAD81000F001094FEA9810FF2400F0010A08F00F
:202BF0000F0000281CBF08F00F0101298DF800004FF6FF7B05D002281CBF0429062840F0D8
:202C1000A88017F8011B8D1FEDB2012804BFAD1FEDB20D203070012108F00F000022062869
:202C30007170C6F81A201CD8DFE800F00406081B0A1B180013210FE0152010E010210BE032
:202C5000DFF8F4030168887E08B91B2007E0062808BF1A2003D01821718005E01220708011
:202C700002E0002016F096F8DFF8CC130A689DF80000907606223946701D16F033FD708889
:202C90007080BF1D08F00F00012886F804A00DD10622394606F1130016F024FD002086F8B2
:202CB0001290BF1DC6F81A00707615E00622002106F1130017F090FAB474757665B1284658
:202CD00017F01CF8C6F81A0020B12A46394616F009FD00E070762F4497F90010F173DFF811
:202CF0005C130B68F27B587974730121F17282180020307300217F20B073F273A6F81EB027
:202D10003182DFF834030068016A4978012918BF022913D1C0694078002818BF02280ED155
:202D3000C74C3279711D204613F027FD1F2805D132790023711D20460CF0E0FE2CE10128BB
:202D500018BF0328FAD13279BE48711D13F015FD22E14FF000087978387801F03F01401ACC
:202D70000121451E0D2030707170C6F81A80EDB217F8010F8009708017F8011B11F03F0F07
:202D90000DD017F8018B5FEAC87108D506223946701D16F0A7FC86F804A0BF1D05E0062264
:202DB0000021701D17F018FA34715FEA88700DD50622394606F1130016F094FC708886F8B7
:202DD000129040F00400BF1D708006E00622002106F1130017F000FAB4745FEA0871DFF846
:202DF0006892DFF868A211D53888000B8AF800003988C1F30B01A9F800103888000B7073D5
:202E100037F8021BC1F30B01F18302E07473A6F81EB018F0100418BFFF1C5FEA486047BFE8
:202E300017F9011BB1737F20B073757665B1284616F064FFC6F81A0020B12A46394616F0FA
:202E500051FC00E070762F4417F9011BF1737B490B68F27B58797E497E4B8218F27317F839
:202E700001CB7D4A7D480CF03F0CBCF1250F54DA0078F0723878307303280CBF0027012722
:202E9000381830731F78012F17D134B102201870728842F02002728067E0B07882075ED586
:202EB000654804686E48E269047804EB84041719F878012853D103224BE01078022F0CD122
:202ED00018B1708840F00A007080002C42D10020187073887380107011E0032F12D144B1A7
:202EF000022018700120738843F02A03738010703BE000221A70708840F00A00708001221D
:202F10000A7032E000241C7018B1708840F00A007080708840F040001FE03F78F772032FC1
:202F30000CBF4FF0000C4FF0010C6744F772002796F80BC0377380F800C0187830B1401EDA
:202F5000022812D8708840F080007080177034B101221A70708840F02000708005E000205F
:202F70001870012072887280087000223248328203681A6A5078012812BF02280878012860
:202F90000AD1B9F8002037489AF8003042F4805220F8132000220A7035B1707E20B971889F
:202FB000022060F3461171802F49087888B330792E4C711D17F0ECFC90B12146701D14F038
:202FD000FBFD0546FF2D0BD01E204543611C06222944701D16F086FB605D40F0020030711B
:202FF00006F11301B07C17F0D3FC90B104F10D0106F1130017F0C8FC48B10622611C06F106
:20301000130016F06FFB207840F0020000E0FE20B0743146042001E000210E2015F0FAFE69
:20303000BDE8F24F0248006817F0AABCBDE8F18FA8230020144E00207C2600206826002079
:20305000A8480020CC470020A6260020B3260020B4260020B5260020B6260020B72600204A
:20307000B1260020C8240020784E0020742000202DE9F84FDFF8B054696884B0019121B9FA
:2030900005B0BDE8F04F17F077BC0978DFF89C64DFF89CB4DFF89CA401291CBF022904295A
:2030B00046F2A81740F6C41841F64C5905D0402918BF802900F015812DE216F065FF002836
:2030D000FAD00198007807F00FFB009015F092FEDFF8641404464878002800F0A48003F057
:2030F0003BF816F08BFC0290002C016801914F6875D000980AF088FC022870D000990A78B0
:20311000022A02D0042A32D005E205238AF80030B0B917F02DFC8144DFF82004DFF820342C
:20313000C4F8089000681E78C26906EB86069119CA88616908FB0298C1F82080A26802615C
:203150006069C17F01F0EF01C1776069C17F41F08001C1776069C17F01F0F00141F002012B
:20317000C177B868616958444862022035E006218AF80010A8B917F0FBFB8144DFF8C40326
:20319000DFF8C433C4F8089000681E78426902EB06118A89616908FB0298C1F82080A26873
:2031B000C260DFF8A0030168087C15F0A9F96069C17F01F0EF01C1776069C17F41F08001F2
:2031D000C1776069C17F01F0F00141F00201C177B8686169584448620420A87011E1019859
:2031F000017880290BD1DFF8641308208AF800000A787869012A0AD0B16A0A780CE0D349BC
:2032100007208AF800000A787869012A02D10121C17202E0B16A4A78C2720298C64A8179A8
:203230000198917072E10098002811D00199009A0078C44E914207D1022804D004284BD042
:20325000002015F0A7FDDCE0022802D0042824D061E105208AF800000221A97017F088FB0E
:203270003918A06817F080FB08B100F0CAB817F07FFB8144B148B24B6169C4F80890006876
:203290001D78C26905EB85055619F28808FB0298C1F82080A2680261B3E006208AF800005D
:2032B0000421A97017F064FB3918A06817F05CFB90B917F05DFB8144C4F808903068A24B5D
:2032D00042691D7802EB05118A89616908FB0298C1F82080A268C2603068007C15F010F97A
:2032F0008FE095494878002800F0B58002F034FF16F084FB0290016801914F688E4988789F
:2033100016F07CFB039016F045FE10F0070F7DD0A87807F0E9F9009015F06CFD040075D0A1
:20333000019900980AF070FB02286FD000990A78022A02D0042A30D065E005238AF8003017
:20335000A0B917F015FB81447C487D4BC4F8089000681E78C26906EB86069119CA886169DC
:2033700008FB0298C1F82080A26802616069C17F01F0EF01C1776069C17F41F08001C177C5
:203390006069C17F01F0F00141F00201C177B868616958444862022032E006218AF80010A9
:2033B00098B917F0E5FA81446648674BC4F8089000681E78426902EB06118A89616908FBC0
:2033D0000298C1F82080A268C2605E480168087C15F096F86069C17F01F0EF01C1776069AD
:2033F000C17F41F08001C1776069C17F01F0F00141F00201C177B8686169584448620420E8
:20341000A870009882E0002015F0C4FC0398029988421ED001984D490278802A0AD1082061
:203430008AF800000978786901291ABFB16A0A78012209E007208AF80000097878690129B7
:203450000EBF0122B16A4A78C27202983A4A8179917001985AE016F09DFD10F0070F60D089
:20347000A87807F041F9044615F0C4FC06462078022802D0042821D053E005218AF80010F4
:2034900017F076FA3918B06817F06EFAA0B917F06FFA814429482A4BC6F80890006819780A
:2034B000C26901EB81015118CA88716908FB0298C1F82080B2680261022025E006208AF88C
:2034D000000017F055FA3918B068DFF878B017F04BFA98B917F04CFA8144C6F80890DBF846
:2034F0000000194B4269197802EB01118A89716908FB0298C1F82080B268C260DBF800002B
:20351000007C14F0FDFF0420A870204605B0BDE8F04F0CF0ABBA05B0BDE8F04F002015F0C5
:2035300039BC05B0BDE8F08FFC250020CCCB0100F0D8FFFF6F4F0020684E00207C26002098
:20355000B126002078260020B2260020734F00202DE9F047DFF82C54DFF82C842968DFF839
:203570002C74087C16F04AFA044628680021C17204F12E09286813F02FF80120607198F837
:203590000100401C88F8010080200BF09DF82060B969DFF8FC23C160162097F82F104143CC
:2035B000501801894900A9F80210C079B9F80410400089F800004900B9F80800A9F8041097
:2035D0000001A9F808004946204615F033FC0520A081204615F05CFE39680A680020107149
:2035F000386817F0D9F900F1080A04F597779AF80000C0F38010387004F594709AF800101C
:2036100011F00F0F1CBF01F00F02012A08D001F00F03022B1EBF042A01F00F01062903D15C
:2036300006220AF1020102E006220AF1040116F059F8D84DA17928681C26714341F62202D3
:2036500042520021A37973430344001D5980A279724381509AF80010CF4811F00F0F1CBF42
:2036700001F00F02012A08D001F00F03022B1EBF042A01F00F0106290AD1C8498A78510685
:2036900008D5C74A138841F20A418B4208BFC548C4F89C01D4F89C1120468847A1792A68BF
:2036B000714311448873A1792868714301440020C873A1792A6871431144887B89F80B00B4
:2036D0009AF8000010F00F0F1CBF00F00F01012908D000F00F02022A1EBF042900F00F0017
:2036F000062804D19AF801005044C07801E09AF81100002818BF012804F5CB7110D12A6804
:2037100002F11003A27972439854401CA3792A687343134400225A7408700A71A24816E0FD
:2037300004220A70A2792B687243032804D1103306209854012002E0103302209854087154
:20375000A1792868714301442020487497480188974AF9870088A179964FA4F874017143A5
:203770002868538A01444B82A1793A6802EB411300F1140271435350A1798F4A714308446C
:203790008261A0790AF008FBA279396852018850A2795201885820B90721204615F033FA52
:2037B000EBE011441F2008763A68A079DFF80CA202EB401100224A76DAF80000A17900EBE5
:2037D000011017F0CDF8A179DAF800203868DFF8F0A102EB0113021D4901535004F168017D
:2037F000A3795B01D2580A60A3795B01C2588A60DAF81410097894F806E0CA074CBF10223A
:2038100000228B074CBF202300235FEA417C4CBF4FF0400C4FF0000C09074CBF80210021AF
:203830001A434CEA020200EB4E100A4342F00F0202723968A07901EB40120B21517238680D
:20385000A27900EB4211042088725E4AA079137839684001012B03D10B3101220A5404E012
:20387000DAF8282013780B310B543868A179636A00F10C02490110305350A179A26A4901D5
:2038900042543868A17900EB4112A06A000A50743968A07901EB4012A06A000C9074082177
:2038B000494A107808F030FF2168A2792868CB68724302444FF0640C9360CA68CB680A61E2
:2038D0008B6000F10C02A17971430C30535C03F0EF034354A0792968704301F10C020C311F
:2038F000135C03F07F030B54A0792968704301F10C020C31135C03F0F00343F002030B54EF
:20391000A279286872431044417B01F0F00141F001014173B9F80400DAF83090D9F8001036
:203930003A68A7794843B0FBFCFC40F6C41002F114037F0100FB0CF0A0F59660D851A1792E
:2039500002EB4110C27C02F0F00242F00402C274A179286822684E438119516020460821EA
:203970000EF008FC194908200870A279184988F802202068174A41618261BDE8F047FFF7D5
:2039900077BB00BF78260020684E0020D8230020844C00205C2600200D470100A0250020AB
:2039B000504F0020413B0100A2260020A426002024250020602600205C4D00208C4E002017
:2039D000CCCB0100734F00206E4F00206F4F0020355F0100020480802DE9FF47DFF80004D0
:2039F000DFF800940178062500294FF01E084FF0FF0A07D0052908D0062900F0CC8007295A
:203A100018BF082900F0EA81E2E1DFF8DC73DFF8DC433868016801F1080631780A4602F060
:203A30000F00072816D1B078A0B1F078C30707D50622311D684615F055FE3078C0F3801A59
:203A5000F07881076DD500F00100331D4543062259191EE011F00F0F1CBF02F00F0006289A
:203A700008D002F00F0102291CBF02F00F02012A40F0B4810622B11C684615F033FE307842
:203A9000C0F3801A00F00F0001284AD1062206F1080102A815F026FE3578ED092846FF2853
:203AB0003FD002A916F074FF98B12068C1694978022918BF03296DD101218172062278796D
:203AD00040F00400787102A92068001D15F00AFE27E099F80000854223D1062209F10101E5
:203AF00002A815F0D7F9E0B12068C1694A78012A0AD9921E012A14D899F81D0020B909F1DC
:203B10000D0016F029FF60B199F80000797960F3820179710622206809F10101001D15F038
:203B3000E1FD5046FF2835D0694616F031FF002830D0786901226946001F12F02FFD0028A0
:203B500028D12068C1694878012818BF032821D14946684614F030F8FF281BD008FB00F857
:203B700009F101007B6919F8082000EB0801181F10F04FFB06280DD07869C8446A4608F107
:203B90000701001F0FF0A4F80622694608F1070015F0A8FD22E1964F964C3868016801F10D
:203BB0000806327802F00F00072802BFB0788309012B45D1002843D0F078C10707D50622E7
:203BD000311D684615F08EFD3078C0F3801AF078810760D500F00100331D454306225919CC
:203BF00002A815F07FFD3078C009FF2853D002A916F0CEFE00283DD02068807A022818BF9A
:203C100003286FD109F10D0016F0A6FE002869D109F10D0102A816F0B7FE002871D02068B8
:203C3000062202A9001D15F05DFD787940F004007871062202A909F1070015F053FD2AE0E4
:203C500012F00F0F1CBF02F00F03012B0FD10622B11C684615F046FD3078C0F3801A00F079
:203C70000F00012817D1062206F10801B8E700200871B3E02168887A022818BF032804D195
:203C900009F10D0016F068FE28B92068807A002818BF012826D15046FF2832D0694616F0AB
:203CB00077FE002865D04946684613F085FF2268014650690078FF2941D008FB01F509F130
:203CD00001014E1909EB050430BB107C15F096FE90F82E11022911BF032919F8052001F049
:203CF00001018A426FD100F5947506222946304615F0D0F830B9062229463F4815F0CAF800
:203D1000002860D0787940F00800787106226946284615F0E7FC0EE0786919F80520314680
:203D3000001F10F076FA06284DD078696A46E11D001F0EF0CDFF06226946E01D41E0002804
:203D500041D1107C15F05AFE0546206840698278924538D1C11C0622684615F09BF890B374
:203D700078796AF3C30078710622694605F5947027E021684A69107828BB087C15F03EFEF1
:203D9000044694F82E01022818BF03281BD16A46514648460EF06EFEFF2814D008FB00F1B8
:203DB00009EB0100417F012903D00D3016F0D4FD48B178796AF3C30078710622694604F56A
:203DD000947015F08FFC39680A680020107105E0002014F0DFFF862016F0BAFDBDE8FF8716
:203DF0006F4F002074200020A82300207C260020D82300207826002078CC01002DE9F84305
:203E10000546089801271E460770AB7891460C46002B00F0BE815B1F0C2B03D9103B00F036
:203E3000E880E3E0DFE813F08D0180016401E2004E01450031011D01E20010010D00E20061
:203E5000ED000F212170062767706978A1702979E170A98809122171297A6171697AA17173
:203E7000A97AE171E97A2172EA6805F10C0002F00101920828BF41F002010068C20828BFB1
:203E900041F00401020928BF41F00801420A28BF41F01001820A28BF41F02001C20A28BFC3
:203EB00041F04001000B28BF41F080010A26617297E16B2016F056F95FEA000800F0908030
:203ED000377000216B220DF0F5F844460A2004F8010B062604F8016B687804F8010B2879BA
:203EF00004F8010BA888001204F8010BA87904F8010BA868002808BF1C341BD004F8017B85
:203F1000A868807E04F8010BA968102220460AF04BFFA868007C103404F8010BA868008A1C
:203F3000001204F8010BA8681230016821604068606008342869002808BF1C341BD004F8C0
:203F5000017B2869807E04F8010B2969102220460AF02AFF2869007C103404F8010B286907
:203F7000008A001204F8010B28691230016821604068606008346869002808BF183412D03E
:203F900004F8017B6969102220460AF00DFF686911300168103421608088A0806869007C74
:203FB000A41D04F8010BE8686B26002800F01A8104F8017BE968102220460AF0F5FEE868F6
:203FD000007C103404F8010BE868407C04F8010BE868807C04F8010BE868C07C207001E1A3
:203FF0000A20207006276770132032E000263446F7E0152020700627677068780326A07055
:20401000EFE012202070062767706878A0702879E070A88800122071A8796071E8880012D3
:20403000A071287AE071288900122072A87A607268890012A072287BE072A8890012207343
:20405000A87B60730E26CCE00E202070062767706878A0702879E070A888052600122071D9
:20407000BFE00C262670062060706878A0702879E070A888A91D001220710A68671D3A60C9
:204090008988B980287BE072ABE00B202070062767706878E91CA0700A68E61C326089887B
:2040B000B180A87A607268890012A072287BE072687B05F1100320731968112604F10D0781
:2040D00039608EE009202070062767706878A070E878291DE0700A68261D32608988B1809D
:2040F000287BA072687BE072A87B2073E87BA8E707202070062767706878A0702879E07082
:20411000A88800122071A8796071E8880012A071287AE071288900122072A87A607268890A
:204130000B260012A0725CE00626267066706878A0702879E070A88800122071A8796071A0
:204150004FE005202070062767706878A070E878291DE0700A68261D32608988B180A87AD6
:20417000A07268890012E072287B2073A87B6073E8890012A073287CE073288A00122074B7
:20419000A87C6074688A0012A074287D1426E07427E000202070062767706878A91DA0705B
:2041B0000A68E61C32608988B18028796072A8880012A072E8780E49E07210200CF044FC6B
:2041D0000146102204F10C000AF0EEFD094910200CF03AFC0146102204F11C000AF0E4FD57
:2041F0002C26A04689F800604046BDE8F883C046A5850110B5A101002DE9F84FC24CDFF816
:2042100014B3C54FA046DA4654E1BE490880AEE0BE4ABF49B8F800001268098853689DF840
:20423000002009185A54461CA8F8006014F03CF8B8F80020BAF80010B44DB54E8146891AE5
:20425000494512DB29683088496880184018494612F03CF8B8F80000484481B2BAF8000003
:20427000A8F8001088420CD024E130882B6880185A6889B2801812F029F8BAF80000A8F8E6
:204290000000B5490B68002B00F0128131880918083188B209E15846B04E018830785D4648
:2042B000092808D09A4904209DF8006008809DF800102E8007E0964A05209DF8006010809D
:2042D00041EA0621298043460022B1F5A57F1A804BDC4018083014F0BCFC06468B48002E04
:2042F000066032D001689D4B08317160726819789B4B117072681978517072685978974B60
:2043100091702D88197809291CBF7168CD7004D17168CD7072682B121371FF21904B7170C1
:2043300019883F22B2EBA12F0AD1C1F3C2133BB1932172683170917801F00301917001E09F
:20435000022131700521397000E02D88002D40F0B18081490B68002B00F0AA806C490988CF
:2043700008318AB201681046A0E0664801800B2632E07B489DF80010794E784D008840EA61
:20439000012030802878092814BF0420032090E09DF8000071499DF800600870701E05D0C2
:2043B000401E012804D9C01F40F08280012080E006207EE0092612E06A4808259DF80010CE
:2043D000684E00883D7040EA0120308072E09DF800006449088007263E706BE004269DF8E6
:2043F000000059460880F7E79DF800005C4902260880F1E70321FF260170584D4670297830
:20441000584B8170554619882E88574BC1F30B020A258280002E0681C1F301318171196864
:204430003D7001F11002C26044D14B480368002B3ED010203AE0334832490088401E80B2F5
:204450000028088034D035E0474909682088CA689DF800108154461C268013F025FF228855
:20447000BBF80010404DD1460646891AB1420EDB2868C0683146801811F028FF20888019CA
:2044900081B2B9F800002180884209D012E02868C06889B2801811F019FFB9F800002080FD
:2044B0002D490B6823B1103080B22968002298470020387013F0F8FE00284BD06846012157
:2044D00011F004FF38780B28F4D8800001A109588F46C046A1430000F943000083430000D5
:2044F000ED430000A742000021420000DF430000C9430000C54300002D45000059440000EB
:2045100047440000C808002084260020CC08002086260020C2080020C00800209DF800001F
:20453000BBF80010464600250202358041EA0200B0F5A57F41EA0201ABF800103FF765AE1E
:20455000103014F086FB0849002808607FF452AF28463870BDE8F88FBC080020C108002022
:20457000C4080020C6080020D00800202DE9F84FBD4F0446386808B9072073E1C07A012867
:2045900004D0042012F0ACFF012801D10C2069E1DFF8D88298F80000092818BF0A2804D026
:2045B0000B281CBF0C280D2801D121205AE1002C05D0207810B101280BD102E0E01C00F0F9
:2045D000AA80A078002818BF012804D0022818BF032840F0A0806078002818BF012803D03E
:2045F000022818BF032872D1607A10F0050F6ED000220023607A01219140084232D004EBC3
:20461000031043F6FD7541890E1FAE423EBF8689A6F1040CAC450FD2B14222BF018BC58AB1
:20463000A94278D3C18940F67B458E1FAE423EBF068AA6F1060CAC456DD28E426BD3458A14
:20465000B5F5FA7F67DA808AA0F10A0640F6774C66453FBF6D1C49006943B1EBC00F5AD284
:204670005B1CDBB2521CD0B20228C3DD39684869417A022904BF002014F08CFB3868446181
:20469000617A06297A490CBF01200020087002F0B3FE050008BF09200BD03A68A9791174FD
:2046B000E01C07D0A278E11C402008F0D3FF08B10B20D7E005F16101284611F0B2FA05F1D2
:2046D0002C06B07B012803DC284612F0EFFE22E039686078DFF89C91DFF89CB1DFF89CA151
:2046F00088726078002818BF012807D1C0073B6854BF594649460622181D39E00AF10D00AF
:2047100016F02AF990B16078C10754BF5946494615F08EF808B91220A4E06078C1073868FC
:2047300054BF594649460622001D12E00AF107010AF10D0016F008F9386806220AF1070114
:20475000001D14F0CFFF4E480368186806220AF1070114F0C7FF607800F001008AF8000099
:204770006178C80754BF5946494606220AF1010014F0B8FF207838BBA07885F82E0105F518
:2047900094790622E11C484614F0ACFFA178E21C01F0010150460EF06DF9FF2814D0A27871
:2047B0001E21484342F002020AEB000185F82E21487F48B901F10D0016F0CEF820B9062293
:2047D0003049484614F08EFF16F0BAF8A86214F081F8686204F1100125480078000104F147
:2047F00014030A5AF280195A71812044428A328102223868417C3170B2700020B08016F0DA
:204810009BF80C2290FBF2F20C2101FB1200401DF073042009F058FF39681B4A1B4B086015
:20483000426083611A4A42610120C872A87901F0EFF898F80000A0B91649087840B1164870
:2048500013F086FE38680068816941F4802181613868007C13F054FE062088F80000FEF70B
:2048700007FC0020BDE8F28F782600206F4F0020B2260020344E00202C4E0020742000205B
:204890008026002078CC01002425002002008080AD550100784E0020CC470020BB482DE95D
:2048B000F84F0025BA4CB849056094F8E200002800F06581012800F02F81B64E02283CD0A1
:2048D000032840F05C8151F8250CD4F8B8100029A0F5C060C4F8D400B8BF49420028B8BF73
:2048F0004042814226DA4FF08057D7F8A4014568B4F8BC0030214FF47F420823009030463E
:20491000A847D7F8A4014568B4F8C00004214FF4F802122300903046A847D7F8A401B4F85F
:20493000D070456820214FF440620A2330460097A847012584F8D8501CE151F8258C15F065
:2049500089FA2F4600B901273946934F38680028FCD0B146012609F10409D9F82CA03E6019
:2049700009B115F07DFACAF30720C4F8BC0015F071FAAA4600B9B2463B68002BFCD0D9F819
:2049900000B0BAF1000F3E6001D015F069FACBF38440C4F8C00015F05DFAAA4600B9B246CB
:2049B0003B68002BFCD0D9F81C90BAF1000F3E6001D015F055FAC9F38120C4F8D000B8F5BD
:2049D000C061C4F8B81000F09C8094F8D80068B9C4F8D410D4F8C000C4F8C800D4F8BC70E9
:2049F000C4F8C470D4F8D030C4F8CC30D4F8D400D4F8BC30002854BF02226FF0010204F125
:204A1000C8010F6800EB40008018421000EB927207EBA2000860D4F8C810C4F8C4300029C9
:204A30001CDD1E293CDDD4F8CC0030B93429B4BF15391E21C4F8C81025E02A29BABFD4F8FE
:204A5000C8000B381E20C4F8C800D4F8C4003F28B4BF401C3F20C4F8C4001FE0D4F8CC003D
:204A7000032812D011F10B0FC6BFD4F8C8000B30301CC4F8C800D4F8C4000028C4BF401E40
:204A9000051CC4F8C450032508E011F1150FC6BFD4F8C8001530301CC4F8C800C4F8CC50D9
:204AB0004FF08057D7F8A401B4F8C43030214FF47F424568374800930823A847D7F8A4011A
:204AD00004214FF400321123456832480096A847B4F8C860D7F8A40104214FF4F80212236D
:204AF00045682C480096A847D7F8A40120214FF440620A23B4F8CC60456826480096A847C1
:204B100001E084F8D85040F2FF50404502D8801C40452FD2082030E051F8251C1F4F4BF291
:204B3000F5204843060A3868C0F3814001280CD11B4800680068804711F08CFB15F096F985
:204B50003111C010484306EBE03694F8E50030B91448006820F07F403618760801E084F88B
:204B7000E5501148310C0660012741600F4D8760287808B90B2000E0052084F8E40004F003
:204B900057F8BDE8F88FC0462D400C402C500C401C03002000A00C4000800C40B43F0050C9
:204BB000EC010010102009403C600C4081BC0100FEB5AC4CAC4F2578AC48AD4BAD4AAE492C
:204BD0000D2D41F2064600F2ED80DFE815F0F300EB00EB00EB00EB000E00F400EB006200F3
:204BF0002B012B0141014101CF00A4494C88148014F47F4FF9D0022C03602CD940F20442F8
:204C1000A41A26D0641E26D040F2FB32A41A19D00A3C012C16D940F6F632A41A032C18D9B4
:204C3000A41F16D0641E16D0641E012C11D94FF47E72A41A0FD0641E0BD0E41E09D0641E30
:204C5000012C0DD88A7B4E80252A0CBF2722521E8A738B4911E0002014F09CF8852059E034
:204C7000002014F097F8842054E08A7B4E80252A0CBF2722521E8A73824901604CE000207E
:204C900014F088F8852045E0002014F083F8842040E07D498C78FF2C54D0036021461C2331
:204CB0007A4D59432B689E1C755A158015F47F4FF4D040F204442D1B012D754A7AD94FF4F0
:204CD0007F742D1B17D00A3D012D19D940F6F6342D1B19D0AD1E012D84BFED1E012D13D949
:204CF000AD1E012D66D940F2FD342D1B0CD06D1E012D05D90AE09B1C41F202455D5203E0A1
:204D10009D1C4FF4A0546C52026005E0002014F041F8852015F01CFE387803B0BDE8F04035
:204D3000012107F0F1BC5B4C5B4A25685B4800680023CDE9002355F8086F594B0222B0473A
:204D500058490880F7BD092D21D157490A685089002800F08280554908780FF027F90021DB
:204D7000002015F0E5FD00202070F7BD4888108002280DD940F20442801A1BD040F6FC72A7
:204D9000801A05D0083815D04FF47F72801A64D1887B801CC2B2B52AA8BF66208873002072
:204DB0004880F7BD002013F0F5FF8420BDE8FE4015F0CEBDF7BD3E494C88148014F47F4FC0
:204DD000F9D0022C03607FF65AAF40F20442A41A15D0641EF7D040F2FB32A41A1DD00A3C37
:204DF000012C1AD940F6F632A41A032C07D9241F16D0A41E03D0641EE5D0641E012C7FF63F
:204E10003BAFA41E0CD040F2F632A41ADBD0641EF5D0E41EF3D0641E012C7FF626AF33E718
:204E300024492AE74888108010F47F4FFAD040F20442801ABED040F6FC72801A3FF483AFA5
:204E50000838B7D04FF47F72801A3FF46CAF04E04888108010F47F4FFAD0002013F09AFFC3
:204E70008520A3E76F4F00206E4F0020204F0020FDA00100504F002008250020402500207A
:204E90009DA4000069AA0000684E00205C260020156E0000F04E002002000080EC4E002079
:204EB000AB4C0100424F002064260020714F002024250020613500002DE9F84F0C46A0065B
:204ED00088B048D5A84D2968487EF8B900210C2013F0A0FF2868026A002111702968086AE0
:204EF00001F08EFE2868016A888850B101220A7028684169202013F0FFFC29680120487694
:204F100026E00021072013F085FF21E00220087600210D2013F07EFF29680020487628683E
:204F3000016A4A78022A0CD1C0694078002818BF022803D18D4814F0D5F902E08C4815F0EB
:204F5000F3FC2868006A0178012908BF01F058FE84F0200004E1E0070BD514F0BFFE28B1CD
:204F7000002181608348006800B1804784F00100F6E02007804D40F18080804E3168087C19
:204F900014F03CFD074607F5947097F82E8107904FF000093068017CCA46FF2904BF00202A
:204FB00013F0F8FE08F001008DF800000146079A28460DF05FFDFF282FD01E21484301903A
:204FD00005EB000B07999DF8000015F0E1FC98B10198285C40F002080BF10101079108F081
:204FF000010087F82E010622079907F5947014F079FB0BF1070910E007999DF8000014F07D
:2050100017FC50B19BF81D00012804D00BF10D0015F0A2FC08B148F002083068807A02285C
:2050300018BF032806D105F10D0015F095FC08B905F1070A002006904346F98E09090591B8
:205050000022B88E0490798E0798CDF8089049080391CDF804A000900020B97915F060FCB0
:20507000D7F89C0146498842B8790CBF002101210BF090F884F0080072E0E0060FD50021E0
:20509000002200230691059204910393029101920091022015F044FC84F0100060E0E0049C
:2050B00018D505F10D0015F057FC20B9E91D05F10D0015F049FC33484268334800784FF411
:2050D000805110F0D7FA10B18E200BF0F7FE84F4805045E0A00505D514F0BCFE2B49012080
:2050F0000860FEE7600504D505F0E9FF84F4806036E0600405D581200BF0E0FE84F48040DA
:205110002EE0A1042BD5224D286810B1002013F041FE4FF0FF30286000201E4D0DF060F8D4
:20513000296851F8202F684690471B49086B4A6B2D681A4B0090019202936B46C86A184A2E
:205150000392ADF810002E68164A17491748B0471749086003F07AF884F4005000E0002054
:2051700009B0BDE8F08F00BF7C260020A8480020CC470020204F002074200020782600207D
:20519000413B0100784E00206E4F0020FC002043044F0020F04E0020A4060020CD9C01005B
:2051B000DD9C0100842400209409002088490020EC4E002010B54FF4DF622349234809F07C
:2051D000F3FD23480021017001220223027243760322204904230A70CB70052141770723EB
:2051F0001D491E480B7008240C72062209210270017210BD2DE9F041194A1A4938201368CA
:2052100054689568D6681769D2F814C0D2F818E0D2F81C800B604C608D60CE600F61C1F8E6
:2052300014C0C1F818E0C1F81C8020322031401EE5D1106853689468D26808604B608C6065
:20525000CA60BDE8F0810000D4C401004804002151030021C103002198030021740300214A
:20527000C4BD010000C000212DE9F047DFF8AC916B496C4E89F800000922002008600D2388
:2052900069484FF48C7102704380818067480660B77E67480770FF2FF17E417008BFFF292A
:2052B000327F8270737FC370B57F0571F67F467114D1FF2A08BFFF2B10D1FF2D08BFFF2E40
:2052D0000CD15C490A7802704B7843708A788270CB78C3700A7902714979417156490278E5
:2052F000564D574EDFF85C810A7043784B7082788A70C378CB700279534B0A714079487142
:20531000FF2028706870A870E8702871687100204E490880776B4E49787808703A784D49A4
:205330001A70B87808707A6910794B4A411E1170F8784A4988F80000B869086008B913F07A
:2053500029FDF869464C206008B913F023FD2068DFF810A101688847226852F8041F5046EB
:20537000884741484149CAF82000CAF82410386A3F49086008B913F00DFD786A3D4C206018
:2053900008B913F007FDB86A3B49086008B913F001FD03F07FFB07280CD106F0A5FE99F8C2
:2053B00000004FF4804107F0AFF9BDE8F047002013F0F0BC3148016888472268074610688F
:2053D0008047216851F8042F00209047F16898F800000A882A4B2B4902431A8038460A68C7
:2053F00090470C21284815F097FA284800680E2114F054FC284615F08BFA15F085FA4FF677
:20541000FF7223488280002101604FF4005199F80000BDE8F04707F077B900BF6E4F002058
:20543000044F0020B63F0050604E0020084F00202C4E0020E81200503C4E0020344E00202F
:20545000CCCB01006C4F00207B4F00200C4F00206D4F00206B4F0020724F0020F04E00206F
:20547000F44E00207C4B0020FD9C01001D9D0100F84E0020FC4E00206C260020E0060020F6
:20549000544F0020E4060020F84D002080260020342600202DE9F84FDFF8B4920F46044671
:2054B000F80B80F00981A54EDFF88482B80F80F0BA80B80880F0AE803809C0F02F81082077
:2054D00014F0F8FC002840F0A080802014F0F2FC002840F09A80684609F02EFB012803D17B
:2054F0000098002800F0918090480078002840F08C8000250124E8B214F02CFA48B1837A23
:205510003BB1847290F9090004FA00F0C0B211F0F9FD6D1C032DEED345460320287405F1F6
:20553000AC0014F003FE83480168002398461A46036050F8081C804940F8088C05F1340087
:2055500014F008FE404605F0B2FC3068006B8047A968401A010BA869C1F1FF3282422CBF24
:2055700008444FF0FF30A861287F20B1E868A969B1EBC02F25D913F0DDFB414600B121467B
:20559000081C1BD06E4840F60901018043464380417B04F00F0221F00F010A434273017BC9
:2055B00003F00F0621F00F0146EA01020273436014F030FB418811F4406FFBD02C774346C4
:2055D000AB6110F065FE5F48444641460460022013F0C8F8022011F061FD112008F0FAF8AF
:2055F000287818B96868383014F0CAFD5648007810B90E2008F0EEF8687F18B16C77052084
:2056100011F04CFD514868612C740DF04DFD27F0080783E006F044F945467435286808B9A6
:2056300027F002077AE014F08BFDB3468246DBF85400016804208847D8B1207CC8B14546E7
:2056500008352868A8B10646DBF80000E568006B8047801BE060000BE060A84202D2401939
:205670004008E06040F6C41181422CBFB0F5FA7FE160504615F044F911F09AF990B1A569BF
:2056900020466FF4807100224FF00073A847464606F16C052868002808BF47F0020701D0F9
:2056B0000DF002FD2046646900214FF080630A46A04727F0005731E014F042FD49460E686A
:2056D00046B306F1280106C90A234FF0E0450B40154008BF002B1DD106F1280191E83000F8
:2056F00006F1280393E8060006F12803AA43A14383E8060015F004F9B16869B1002D08BF6A
:20571000002C09D030692246B6F93C10B4682B46A04701E015F0F4F827F4804727B14846EA
:205730003946503014F038FDBDE8F88FD1100020380F002014100440F93601008C01001058
:205750008C250020000004602EBD010029CC0000B80F00202DE9FE4FA249DFF88C820A7887
:20577000002A0CD0052A07D0062A09D0072A18BF082A00F081802DE10120FDF7FDF92FE1B0
:205790009A4D286815F008F90400F8D020790328F5D1207A00F00F01072938D1944800680F
:2057B0004169497A4A1E11425ED0617A04F10A035A5C02F03F02252A56DBA17A8A09012A64
:2057D00052D111F03F0F4FD0007C14F017F9E17ACA074CBF04F1110204F10B028B0748BFBE
:2057F000921D0B0748BF921CC90648BFD21C1621127852094A437F498B1801F10A06EB60FE
:20581000B15A41869A898286D989C1862CE000F00F00082828D1A17A880925D121B374486C
:205830000168087C14F0EAF8E17A064688071BD5062201F001015143601800F10C0168468C
:2058500013F050FF207AC009FF280DD0694615F09FF848B108F10D01684615F095F818B923
:205870000521304613F0CFF9207903281CBF002013F090FA286817E0DFF87CA19AF8020056
:20589000FF2813D014F0BAF883460BF16C06706815F082F800900179032907D18068047838
:2058B00014F0030403D1706815F06AF898E04578032C00F102090BF2171706D19BF8940031
:2058D00000284AD0042D11DD1CE0A5B1307868B10BF1F400017801290DD1424A117807298E
:2058F00004D0082904BFC078012804D13D2179700120387074E041490A78012A70D09BF82C
:20591000941051B32D1FEDB24B462A462146584609F0FAFE38B93D20787001213970404666
:2059300012F061F95CE036480168884780469BF80610DAF804204FF4D07041435018002213
:2059500080F841210BF59E700168807949080CF0E9FC2C490A684046904700990020032C8F
:20597000886016D0284841690878820707D5C0074CBF03200020401919F8000000E081204A
:20599000307223469AF802002A46494604F06EF818E099F800001A2803D21C4A115C8D42BD
:2059B00005D0B870072158460CF0E4FB07E00D480178082903D149465846FBF7B1FC484625
:2059D0000EF0A2FD706814F0DBFF0099584611F0CFF805E0002013F0DDF9862014F0B8FF26
:2059F000BDE8F78F6F4F002074200020D823002078260020844C0020684E0020794F002053
:205A1000E0060020E4060020CCCB010044CC01002DE9F84F13F0F2FF0746924C41F62800E2
:205A3000002120806180616014F0A2FF00F57A60A060DFF834A2DAF80000A168C160227B39
:205A5000617B02F0F00201F0F00142F0820241F001012273617300222521A173E2734069C8
:205A7000417A012918BF032904D0042918BF062902D003E0002003E0022001E07B48007831
:205A90002074207C00B12020607462824FF000087748784DA061656111F044FF2860C146B8
:205AB0007548016A0878C2074CBF1021002182074CBF2022002243074CBF4023002300072E
:205AD0004CBF8020002011431943014341F00F01297100206871DAF800104869007800F028
:205AF000010040F002006871897A890001F004010843687197F82E11C90001F00801084308
:205B10005E4968718A78510644BF40F020006871A97A012001F0C0012881A972A81D0221CE
:205B300014F0FAFE1620E87207F1610E1622544B384602FB08F15E18416A31604FF0010B1A
:205B5000876A37710227816A090A71710BFA08FB816A090CB171F771002131819EF8007028
:205B700037749EF8011071749EF80270B7749EF80310F17400F12C019EF8047037750F7842
:205B9000C97B01F01F0141EA47117175DAF80070D7F814C09CF8091011EA0B0F17D04FEA70
:205BB00009110CF1100B3BF801B0A6F80AB00CF1120B3BF801B0A6F80CB00CF1140B3BF8C0
:205BD0000110F18109F101015FFA81F908E0BCF810107181BCF81210B181BCF81410F18163
:205BF00008F10108B8F1020FA3DD26490E7872431A443B1DEA602B619CF800100029A97F2E
:205C10000CBF00F594702048686101F0E00141F082014FF6FF70A977A8837869A16800F11F
:205C30000C023001135A40F6C41000FB031129620020E97F154B686201F0E00141F08101CD
:205C5000A862E862E977187850B1B87A022807D10F4814F081FE18B9687940F00400687122
:205C7000BDE8F18F2425002078260020B126002074250020D8230020CCCB0100A025002080
:205C9000844C0020B2260020D0470020784E0020812000202DE9F04F8246DAF80070DAF8FD
:205CB00004600C465FEA0208ADF11C0D14BF00214FF0FF31DFF84092484613F00FFF002831
:205CD00018BF0B2040F0158100258F488C4905708A48FC60524614F03DFA317B272014F0AE
:205CF0003BFAB8F1010F07D06570022011F05AFD062011F057FD01E0012060702078012872
:205D100040F2AA80801E012868D9801E012833D9801E012800F2DE8014F012FA83464FF00D
:205D3000805000F5EE77D0F8DC01A378466A009321782846062908BF0120019001200290C4
:205D5000A068228AE1686368B0478146584614F0D7FDB9F1000F40F0BF80B8F1000F02D085
:205D700013F06CFC02E0504611F000FA002800F0A3803868806A2AE014F0E2F983464FF07F
:205D9000805000F5EE77D0F8DC01012306680093A168A27860682478AC46042C08BF9C46AD
:205DB0006346B0478146584614F0AAFDB9F1000F40F09280B8F1000F02D013F03FFC02E07E
:205DD000504611F0D3F9002876D03868406880474C49C1F8B0510D6081467DE014F0B0F946
:205DF00083464FF0805000F5EE77D0F8DC01E38A86690093E0680190208B0290A07803900C
:205E1000207D04900121059122782846022A08BF081CE1786268A368B0478146584614F0DC
:205E30006FFDB9F1000F57D1B8F1000F02D013F005FC02E0504611F099F900283CD0386898
:205E5000006A80475FEA000946D1E078A168E28A23690AF06BFABFE714F072F983464FF0C3
:205E7000805000F5EE76D0F8DC01E38AC7680093E0680190208B0290A0780390207D294648
:205E9000049001200590257805B9014608466268A368E178B8478146584614F031FDB9F14A
:205EB000000F19D1B8F1000F02D013F0C7FB02E0504611F05BF908B914201AE0306840698D
:205ED00080475FEA000907D1306802692169E078904781E74FF0FF39B8F1010F05D0022076
:205EF00011F0DCF8062011F0D9F8034814F048F9484607B0BDE8F08F4005002078050020CA
:205F1000A181010050450240A92600202DE9F24F054684B02868D0F80490D9F8080014F0E9
:205F300023FD002805F59A7B40F0058128680169049814F0E1FC05F18206804630780028B9
:205F500005F12E0440F6C41A00F0878070882989401E80B214F0CCFC0746307802280CBF0E
:205F7000BBF83000A088784300902868016900980AFB0011049814F0F7FC002868D07F1C85
:205F900003973078009F039A02280CBFBBF83000A088C71900230AFB07F0029201930090BC
:205FB000296809694118049814F0DEFC90B100983189A8EB00080AFB01F0B8FBF0F200FB47
:205FD0001288B8F1000F18BF521C514301910399521802922989029841186981F1880198B9
:205FF0003278CF19C719012A48D105F18601284612F020FF7089688400212977E983E8894C
:2060100069894118A9813289A188B0898A4204BF2389984202BF7189E388994207D00009E8
:2060300000907389A9795208002014F0BDFCA088ABF83000317921703089A0807189E18001
:20605000B0892081284613F023F90220307015E03178012918BF12F09DFEA08829890AFBEC
:2060700000F0B8FBF0F700FB1788B8F1000F18BF7F1C79186981BFB2A08847432968344A15
:2060900008690AFB0700C9F808000B78802B10D1C860D2F83080A388D8F8000043436420F4
:2060B000B3FBF0F3D9F814000AFB03F3A3F5966343610B78402B36D1AF614FF4C873688AB5
:2060D0004743B7FBF3F0401C6861D9F80830181AC9F808006B69DBF8000000EB4300D9F8C2
:2060F000143058611B4833780068022B0CD1AB795B0100F1140656F803C026780AFB06CC02
:2061100000F1140646F803C0AB79126B00EB4316A388106843436420B3FBF0F30AFB03F048
:20613000A0F59660F061D9F8080088602846E17AA17210F034F86989A88914F0D9FBE9893D
:20615000814238BF0120ABF82E0005B0BDE8F08FCCCB0100602600202DE9FE4F8A4C61785A
:2061700011B9002012F016FE14F002FC06464FF0000806F6C4160027844DDFF8149211E03E
:20619000384613F03BFC417951B12A68817902F8081008F101015FFA81F83146FFF7B6FEEF
:2061B0007F1CFFB299F800008742E9DB6178884505D0002012F0EEFD822014F0C9FB60789B
:2061D000012840F0C380002701E07F1CFFB299F80000874280F2B480384613F00FFC0646E7
:2061F00070790028F1D02968B0790A7890421CBF002012F0CFFDB079A0E0286810F809009C
:2062100013F0FCFB00684268DAF808109068814204BF3E4609F1010900F0A680A8E0286844
:2062300090F800B001224FF4D0710FE0636803F5B176835C01FB03F901FB0BFE36F809C0C3
:2062500036F80E60B44538BF9B46521CFBB29A42ECDB4FF6FF700BF01BF80646584613F054
:20627000CDFB4C490068D0F804A00868D94630F8192060684FF4D07300F10E0103FB09F3A5
:20629000C85AB2EBD00F52D2720840F6C410424300920027404A0190029217E0584613F023
:2062B000ADFB01680A78802A03D1DAF81430009A5A610978402908D1029980790A6802EB9C
:2062D0004011009800F5A060C8617F1C47452EDA2868C05D8345F8D001464FF4D0735943D2
:2062F00063685A1803F5B173D289595A53088B4202D2521A9045E8DA13F080FB01684A688F
:20631000019B9168DAF808207008A1F6C41103FB002014F029FB0028C0D01E48006830F806
:206330001910491C20F81910286810F807B01948026800215B4622F813105846BDE8FE8F95
:20635000002012F027FD822014F002FB617828680CF05DFB2868007813F050FB00260068A3
:20637000D0F804A04FF00109771CC145FFF645AFF6B2002E1CBFF8B200287FF450AF286851
:2063900090F800B065E700BF684E0020004F00207B4F002070260020602600202DE9FE4FBC
:2063B00005467B48002400680094C00905D37948007810B9202011F0ADF8012D40F0E28056
:2063D000DFF80092D9F8DC00012840F0D8800220C9F8DC0013F0AEF8012011F09BF85FEA80
:2063F000000805D00120C9F8DC0013F0AFF8CBE013F0CEFEA34602906748684DC0F800B087
:20641000A86A016801208847012804D158460BF037FD012000906248624FC0F800B0386822
:20643000112013F041FD00B10124102013F03CFD08B144F002040F2013F036FD08B144F053
:2064500004040B2013F030FD20B12868564E016B308888470A2013F027FD20B12868534E7E
:20647000016B308888475248012606602868816944F0200088474F48066013F00FFD00F059
:2064900001010191400814D2286A81684A4888478246BAF1040FF7D0BAF1010F04D1286ADF
:2064B00042684548032190474449086820F003000860584600F088F82B683868986B804717
:2064D000019801280CD0BAF1010F04D1286A42683948314690473949086840F003000860E6
:2064F0002F48066028684169204688470B2013F0DBFC20B128682C4BC16A188888470A209F
:2065100013F0D2FC20B12868284BC16A18888847274806600322C9F8DC20264BC3F800B099
:206530002868416B204688470128F9D13868042010F0F0FF044618480660386814480068C0
:206550008009FBD30098012802D130460BF098FC13F086FC082010F0DDFF07460298C9F80A
:20657000DC6014F0C1F9164800880BF04FF912F0EDFF57EA040018BF4FF0FF3804E06FF025
:20659000040801E06FF001084046BDE8FE8FC04614100940040400200C400940B8010010E5
:2065B000000222432C2009405AB9010056B901002820086080010443004003402422084022
:2065D0007CBC01001C0300202DE9F84FDFF804B20746ABF13500DFF8F0810068800880F083
:2065F000E28075480068006880477E490831D1F8009000254FEA29715FEA995201F101015C
:206610000AD2C0F13E0210F10A0F4FEAE202D8BF08229142B8BF111C684BD3F87C21C2F35E
:206630000462162AA8BF203A1B68C3F30443162BA8BF203B9A465218162A05DA12F10A0FDB
:20665000B8BF6FF0090200E015225D4B5D4E02F01F0141F4F8511980316811F0030F18BF33
:206670000125C90828BF45F002050FB145F00405434693F90710411A052904DA9979A94262
:2066900008BF99886FD0DFF844E10F28A0F10F0829DB08EB0011A1F1F0084FEA2821009143
:2066B000072984BF07210091062988BF06215EF821600424774604EB81043C594FEA950C62
:2066D000A41BEE0804F0FF0124BFC4F3072631446F08AE0824BFC4F3074631446E0828BFDF
:2066F00001EB146104E000214FEA950C6F080091009C5EF824E05FEA5C060EF0FF0424BFBD
:20671000CEF3072634447E0824BFCEF3074634446E0828BF04EB1E64009E89B2A8EB0626AE
:206730007143803104EB1124AAEB02010029D8BF0121342209F0FF074A4391B24FF6FF726B
:206750007943B1FBF4F18A4238BF111C802889B2998005DA10F1800FB8BF6FF07F0000E04C
:206770007F20D8719D711A4800681F2918604FF0000008D340F2FF128A4206D24908401CDB
:206790008A42FBD301E01F219980134F0F39090940EAC10047EA0001CBF8FB1F0026CBF876
