:20000000003C01206D60010039FB021039FB021039FB021039FB021039FB021039FB021011
:1C00200039FB021039FB021039FB021039FB021039FB021039FB021011FB021002
:04003C0000000000C0
:200040002DE9F04F0446B548ADF5FE7DADF1500D2568889020680F461BF0AEFA014600224E
:200060008E97284649198A928142899140F20D85AB4A8F928A9B86939193879392939092F5
:200080004FF0FF368396869981910F468DF8107282970778252F08BF0A1C11D0002F00F06D
:2000A000F48421680078491C216088991AF0CAFD20688A990778491C252F8A91EED1819A17
:2000C00020688E9F401C206011E042F010020AE042F0010207E042F0020204E042F00802FE
:2000E00001E042F0040281922068401C2060206800782038F5D0C01EF0D00838EBD0801E1C
:20010000E6D0C01EE1D0206801782A2917D0302901AA0ADB3A2908DA0146401C206009788D
:2001200002F8011B01783029F4DA879810709DF80400B0B101A816F055FD829011E0FF1C51
:2001400027F003073F1D57F8040C002803D542F00102819240428290394620688E91401C65
:200160002060206801782E2929D1401C206001782A2919D0302901AA0ADB3A2908DA0146A7
:20018000401C2060097802F8011B01783029F4DA879810709DF80400002808BF87980DD029
:2001A00001A816F01FFD09E02168FF1C27F003073F1D491C8E9757F8040C21608390216864
:2001C000819E08784C3839D01C3817D0801E30D0801E04D0083827D0801F20D036E0491C67
:2001E000087821606C281CBF46F0400046F040060ED146F4807046F4807623E02168491C73
:2002000008782160682805D046F0200046F0200681901BE046F4007046F4007612E046F434
:20022000805046F480560DE046F4005046F4005608E046F4006046F4006603E046F080001C
:2002400046F0800681902168491C2160097820686E298DF8101200F10100206000F0D8835E
:20026000732900F030830DF20120829D859020214FF4FF7201A813F054FC859887990DEBC5
:20028000050606F1040B01700A468B920DF5007C8C928A468D929DF81032CDF814C2184614
:2002A000642814DC642821D0253800F0FB821C3800F04F81001F022840F24B81133815D0F0
:2002C000093800F04681801E00F02C82F6E16538022840F23E81001F08D0801F012805D9BE
:2002E000801F18BFB0F1030040F0E8818399002904D4819820F01000819002E001208390CE
:200300000146B3F1580007D017380BD0401E03D0083818BF0A2206D1102204E0201E0020DA
:20032000FFFF0F000822702B00F0B280819843F66076D146D0463040203800F08B80203859
:200340007AD0C03861D0B0F5807047D0B0F5C06036D0B0F5006025D0B0F5805013D0B3F1BD
:20036000580000F095800C3800F08980401F00F08680801F00F08C80801F00F08980C01E7D
:2003800000F086808EE0B3F1580000F081800C3875D0401F73D0801F7AD0801F78D0C01E33
:2003A00076D07FE0B3F1580072D00C3867D0401F65D0801F6CD0801F6AD0C01E68D071E030
:2003C000B3F158002FD00C382DD0401F2BD0801F29D0801F27D0C01E25D063E0B3F1580047
:2003E0000AD00C384BD0401F49D0801F04D0801F18BFB0F1030055D1FF1C27F003073F1D01
:2004000017F8048C4FF000094BE0B3F158000AD00C3808D0401F06D0801F04D0801F18BFBA
:20042000B0F103003ED1FF1D27F007070837A7F1080090E8000334E0B3F1580028D00C3822
:200440001DD0401F1BD0801F22D0801F20D0C01E28D11DE0B3F158000AD00C380FD0401F19
:200460000DD0801F04D0801F18BFB0F1030019D1FF1C27F003073F1D37F8045C0EE0FF1CF8
:2004800027F003073F1D57F8045C4FEAE57907E0FF1C27F003073F1D57F8045C4FF0000923
:2004A000A8468E97CE1745464846294350EA060708BF002903D181990E09C0F04981642B7A
:2004C00018BF692B08D1002806DA01276D424FF000018C9761EB000085A9009101462846D6
:2004E00010F03CFE8399401C81422BDA9DF81032782B03D0582B18BF702B11D18199080933
:200500000FD3702B08BF7823859803708598401E85903021017085989DF81032401E8590B3
:2005200081996F2B40F014810809C0F0118185984278302A00F00C81302101708598401E04
:200540008590B9E0859930220A708599491E8591C8E7FF1D184627F00707A0F161010837E8
:200560008E97083F97E800031A2938BF20385546984208BF012547F6F072CE4647F6F07049
:2005800000EA194082420FD18F9F714600260A004146324331434FF0FF36174006EA010231
:2005A00008BF002A40F0A28047F6F0724FEA0E0182425DD1909F0022404694464FF0FF36FA
:2005C0000A434CEA00003040174008BF00284FD1B2A20CCA7146404612F05EFE22D3002DDB
:2005E00014BF4621662185988DF80012002DA0F10100859014BF4E216E2101708599002D25
:20060000A0F10100A1F10101859114BF49216921017085992B27491E85914FF0030A00F835
:20062000017C8BE7002D14BF4621662185988DF80012002DA0F10100859014BF4E216E2184
:2006400001708599002DA0F10100A1F10101859114BF4921692101708599491E85912D277B
:2006600000F8017C8199DDF814C24FF0040A6AE04FF00047504600260F4000EA06000EBF5B
:20068000002889F000494FF0010AB3F1410026D0001F1CD0401E13D0401E07D01A381ED08A
:2006A000001F14D0401E0BD0401E07D149EC108B81A885A909F096FD9DF81032819947E0FD
:2006C00049EC108B81A885A915F053FD05E049EC108B81A885A90CF011FA819936E049EC26
:2006E000108B81A885A906F097FFE5E7002D14BF4E206E2061468DF80002491E002D8591DC
:2007000014BF4120612008708598002DA1F10101A0F10100859014BF4E206E204FF0020A0D
:2007200008700BE7FF1C27F0030755463F1D17F8046C8E9706B901258D9581998DF8006270
:2007400021F0020181916046401E85909DF81032859A752B02F101002BD06F2B29D0782B9F
:2007600027D0582B25D0702B23D05FEA0A0703D07F1E1ED101238C9301F002038C9F8B9341
:200780001FB98B0808D32B2100E02D211170859A8199401E521E85928B9E374309D1CA08AB
:2007A00007D3859920220A70859A8199401E521E859249080DD2859D8299ADEB050202F267
:2007C0000122914205DB01A96D1A5D44A5F5FE7500E001ADAC46401E4FF4FF7110F8017F4B
:2007E0000CF8017B1FB1491EF8D1DDF848C28D9FCDF814C227B1879960460170401C859053
:200800008598834509D3ABEB00022021401E521C13F087F987988BF80000819840092ED3EA
:2008200001A8A84232D001A82A1A302101A813F078F98B9F8C9E374305D18198C00838BF4C
:200840000DF1050007D3287830218DF804000DF1060005F8011B9DF81022782A03D0582A66
:2008600018BF702A02D18199090903D2612A18BF412A0BD16978017030276F7006E001A873
:200880002D1A20212A4601A813F04BF901A81AF093FE8D9F0246D21909E0C04600000000DE
:2008A000000000007BA00188012201AF3980889901A81AF0C9F9B0F1FF3F00F0A0808A9960
:2008C00009188A91D8E0839DF00949D2DDF82092FF1C27F003073F1D57F8048C8E97B8F124
:2008E000000F00F09080829F002D06D440461AF063FEA84288BF281C02D840461AF05CFE97
:200900000546BD42A8BF071C8A98AF4238448A900ADD700808D27E1B002E05DD20204946A9
:200920001AF090F9761EF9D1002D07DD2E4618F8010B49461AF086F9761EF8D18198AF42A6
:2009400040F39A804008C0F097807F1B002F40F39380202049461AF075F97F1EF9D18BE013
:20096000DDF82092FF1C27F003073F1D57F8048C8E97B8F1000F46D0829F002D06D44046D8
:2009800019F02AFEA84288BF281C02D8404619F023FE0546BD42A8BF071C8A98AF423844C4
:2009A0008A900ADD700808D27E1B002E05DD202049461AF047F9761EF9D1002D0CDD2E463A
:2009C000A8F1020838F8021FC8B2884213D149461AF038F9761EF5D18198AF424CDD40085C
:2009E0004AD37F1B002F47DD202049461AF02AF97F1EF9D140E01AF097F8582101604FF0B8
:200A0000FF308A9041E0929849461AF01BF933E043F660703040203825D0E0380ED0B0F521
:200A2000807017D0B0F5C06008D08A99FF1C27F003073F1D57F8040C01601CE08A99FF1C8D
:200A400027F003073F1D57F8042C0846C91782E8030010E08A99FF1C27F003073F1D57F805
:200A6000040C017007E08A99FF1C27F003073F1D57F8040C01808E978A98B0F1FF3F04D079
:200A80002068899981423FF6FBAA8A987FB014B0BDE8F08F2500704738B586B004468DF808
:200AA00005104FF6FF720120ADF80220090ADFF8E058ADF8000002238DF806108DF8043043
:200AC00069462A7820461AF073FD162803D1297820461AF069FD07B030BD3EB504000D466E
:200AE0001ED0DFF8B008006822461AF059FDFF2815D000200090002301AA2946204610F0EA
:200B00000DF960B99DF8040000F0F0F8C00606D59DF8040000F0EAF810F0040000D0012044
:200B20003EBDFEB5164615244FF6FF7290420D4615D100208DF80400DFF854789DF80400CC
:200B4000B97988421AD23246294600F03AF800B100249DF80400401C8DF80400EEE71AF072
:200B60001BFD50B100F0FEFA40B99DF804003246294600F026F8002400E014242046FEBD90
:200B80007CB50D46044606214C43164600F081F8A8B900F079F890B99DF80700002E14BF64
:200BA000054320EA0505E9B2814206D08DF807506A460821E0B218F0BFFB012076BD002028
:200BC00076BD2DE9FC410646344606235C438846154600F05EF8002853D100F055F80028E1
:200BE0004FD1DFF8AC77F879800019F0D7FD040003D1042018F0EAF943E0F979703689065C
:200C00002246090EF0B218F06FFB002835D1204600F058F85FEA08000ED1FA799206120E12
:200C20000021204618F0FBFF38BBFA7992000021204619F037FC16E0214600F030F858B9EA
:200C4000280004D02146002000F029F810B900F0A0F916E0A0F800808178A9420DD08570EA
:200C60000DB900210180204600F02CF8F97989062246090EF0B218F05FFB00F08AF901207A
:200C800000E00020BDE8F6810622FF21684618F0C6BF20346A460821E0B218F025BB70B5E9
:200CA000DFF8EC36DD79002200E0521CD4B2AC4206D231F824608642F7D101EB840070BD4F
:200CC000002070BD10B50021DFF8C4260AE030F82130DB4320F8213000EB8103491C9C784E
:200CE000E4439C70D3799942F1DB10BDE0B50623584320306A460821C0B218F0F5FA10B94D
:200D00009DF807000EBD00200EBDDFF88406007808210FF045B938B50025DFF8744619E0E6
:200D2000E069062313FB05F300EBC50220330821D8B218F0D9FA58B1E0690622FF2100EB23
:200D4000C50019F0AFFBE06900EBC5010022CA716D1CEDB2A1798D42E2DB607C10B1BDE8B4
:200D6000314034E231BDF8B5DFF82416DFF8283689791E680C460A4600E02A46D5B23DB11C
:200D8000551ED2B2324412F8017C8742F5D12C46E4B220464D1E07E01718165C7F7817540D
:200DA0001A680244401C5670A8421A68F4DBAC4204DABDE8F840052018F0BEBAF1BD38B525
:200DC00000200024DFF8C85503E0E0B200F008F8641CAA79E1B2914201D20100F5D032BDE5
:200DE0002DE9F84F83465D46062313FB05F58EB005F1200701AA0821F8B218F075FA002881
:200E000074D10622FF2101A818F009FF00286DD1DFF87C65F079800019F0C0FC5FEA00096E
:200E200004D1042018F0D2F80A2061E01C22FF2103A819F037FBF2799200FF21484619F084
:200E400031FB05F123040AAA1021E0B218F04CFA60B91022FF210AA818F0E1FE30B99DF802
:200E60000A0001A900F001001AF092FB082200F042F801AA0821F8B218F05EFA8DF800007F
:200E800003AA05F1210000F03AF8074605F1220003AA00F034F8804603AA1021E0B218F000
:200EA0004BFA044605F1240003AA102100F028F88246253503AA0421E8B248EA070718F0C5
:200EC0003BFA2743F1799DF800504AEA0707074389060BF170034A46090ED8B218F02CFA3B
:200EE0000743484619F062FC3D4300E0002528460FB0BDE8F08FFF2101A819F0D3BA1C2141
:200F0000C0B218F019BA2DE9F84187B0FF208DF80000DFF87C54A87919F040FC040004D174
:200F2000042018F053F80A2030E01022FF2103A819F0B8FAAA79FF21204619F0B3FA0622C1
:200F4000FFF7D9FF03AA1021022018F0F5F9064603AA1021032018F0EFF906436A46012175
:200F6000042018F0E9F90746A9792246052018F0E3F9054601AA0621062018F0DDF980469C
:200F800000F007F83E432E4348EA060008B0BDE8F081204619F00ABCDFF8F413408809780E
:200FA00018F03EB9F0B5A9B006460D4614461AF0F3FA08B91420AAE0A4220021684619F027
:200FC00071FAADF800600DF12607DFF8C463F078317B8DF80400707B8DF8A000279861F3B8
:200FE0000000317B27908A074CBF0222002220F0020010432790CA064CBF4FF4807200225E
:2010000020F48070104327908A064CBF4FF40072002220F40070104327904A064CBF4FF424
:201020008062002220F480601043279049074CBF0421002120F0040008432790B07B0228A2
:201040000CBF0120002078741AF09EFA412807DBB07B00B108209DF8991008438DF8990000
:20106000F07BB8B10121B974202206F188010DF1390019F00DFA202206F1A8010DF159000B
:2010800019F006FA202206F1C8010DF1790019F0FFF900E0B874F07A8DF8050088B1BF4F86
:2010A000102207F110010DF1060019F0F1F99DF89900082805D1102239460DF1160019F0FC
:2010C000E7F9B07A8DF8260028B11022B4490DF1270019F0DDF9307948B1022D18BF032D77
:2010E00003D1279840F002002790012100E000219DF899000143B0788DF8991000B10420B4
:2011000001438DF89910684621461AF039FA29B0F0BD2DE9FC41154615244FF6FF72904216
:2011200088460DD100279A4EB179F8B2884216D22A464146FFF724FD00B100247F1CF3E716
:201140001AF02AFA50B100F00DF840B99DF804002A464146FFF714FD002400E01424204639
:20116000BDE8F681002100910023417901AA01F00101801D0FF0D2BD70B504460D46062013
:201180004543082B88B0164603D1300758BF223500D521351C220021FFF7AEFE01AA1C2173
:2011A000E8B218F0A1F880B99DF81E00C01F0A280BD29DF830000090F20801AB02F001022A
:2011C00006F0010120461AF0D7F908B070BD38B51AF0CEF900246E4D0FE0E8690622FF21CD
:2011E00000EBC40018F01BFD28B9E86900EBC40100201AF0B9F9641CE4B2A8798442ECDB9E
:2012000031BD3EB50C46002501460095002301AA20460FF083FD38B99DF80400FFF766FD04
:20122000C00601D401203EBD00203EBDF8B506460F4615460C2019F0B1FA040019D02681BF
:20124000A77200202060E07245B10821284618F001FE606018B9FFF79CFE0BE0606051488A
:20126000016811B9046004E0014608680028FBD10C600CB91520F2BD0120E0722A463946D1
:201280003046FFF78FFE04464148806900281CBF4368002B03D000220021304698472046EF
:2012A000F2BD38B505463F48046803E02089A84204D02468002CF9D1012032BDE07A0128F5
:2012C00007D100F059F820B13148007804210EF067FEE17A491CE1722846C9B200F002F8C5
:2012E000002032BD38B502290446294D02D003290DD01EE042F6C921FFF7CEFB02001CBF70
:20130000A869002818D04368B3B105210CE042F6A621FFF7C1FB01001CBFA96900290BD0E8
:201320004B684BB102460421204601B0BDE830401847BDE8324000E031BD10B5194B196877
:20134000002201E00A46096851B10C898442F9D10868002A0CBF18601060084619F026FADE
:20136000002010BD024604200E49096819B10B899342FAD1C87A70470A48006828B100685A
:2013800018B1C17A0029FAD170470020704700005C220020680F0020343C00204839002061
:2013A00078390020383C002038B5264C049D2070E2712372A1716572C80019F0EFF9E0616D
:2013C000D8B1A279D200002119F06CF8A07919F0E5F9206208B9E0690DE0A2791A4D0021ED
:2013E00019F060F8A07919F0D9F9286050B9E06919F0DCF9206A19F0D9F9BDE83240042040
:2014000017F0E4BDA279002119F04CF804F1E8001AF0A6F8217806201AF09EF8FFF77BFC4A
:201420002A68A179052017F05FFF48B1A179002004E02B680A1A521E1A54401C8842F8DBD1
:2014400031BD00BF5C220020343C00202DE9F04FBF4CADF1FC0DDFF8FC923D90E7780078A1
:201460000FF2DC28401E0C2800F26983DFE810F0F702C80272005A034F002F001A003E03C5
:2014800031032A030D0021031C0302203CA915F0D5FF002840F05383032001213CAA0FF063
:2014A00097F84CE33D9841680868401E06D0401E18BFB0F10E0003D1002000E001202072E1
:2014C0000868B0F1004F00F03A83486886E24FF6FF7018F0DBFCC1B2082901DB18F001FFCC
:2014E000002020828F00E08107EB01100121001980F86411A089001FADF80800A07817F0FB
:201500005DFC4FF6FF7202ABCF490090E8E2C7EB071019F06BFBA06280B105467FB1E9349A
:201520003E46204614F076FD01460F22284610F091FCE41D0F35761EF3D100E0002700979C
:20154000002040F211610122CBA3019040460DF02DFFF4E23D9841683E918869897D13F0D9
:20156000F5FA014622A818F0D9FF1BAD0DF1A9013C22284617F006F902A81A22294610F0F4
:2015800069FC00258DF822502E460096404640F243510122D2A301960DF008FF02A840F265
:2015A00044510122CFA30090404601960DF0FEFE35AF0DF172010222384617F0E3F8384604
:2015C00015F010FB29282AD133AF0DF175010222384617F0D7F80DF1C40A022250461EA994
:2015E00017F0D0F81022384629460BF0FBFC29461022074650460BF0F5FC642101FB07070C
:20160000C1A0394616F024FAC5A041F6951116F01FFA41F69410B84208BF012700D02F465C
:20162000009640464FF4A9610122C3A301960DF0BDFE002F00F00A81A769002F40F00681C9
:2016400029463746009140460122C5A340F24E5101970DF0ABFE0DF1D40A01200DF17B0176
:201660000222A061504617F08DF80DF1C40B0B225846514610F0EEFB8DF8CF50CDF800B0F2
:20168000404640F259510122D6A301970DF08EFED7A1504617F090F8D84D002840F09980F8
:2016A0005046D4A117F088F8DFF84C93002853D15046D9A117F080F8002800F0D180009707
:2016C000404640F28E510122D4A301970DF06EFEA2794946102009F015FD0DF1E8090DF106
:2016E0007E010222484617F04DF80DF1E00A022250460DF1810117F045F8102248463146D0
:201700000BF070FC31461022814650460BF06AFC85F83300412185F83290312085F82F109D
:201720000122D3A385F83000522085F8310040F2B2510097404601970DF038FE41E0C046FF
:201740006D756C74695F726F6C652E6300C046C0E00F0020792202100097404640F2795121
:201760000122D5A301970DF021FEA2794946102009F0C8FC0DF1E8080DF175010222404677
:2017800017F000F80DF1E009022248461EA916F0F9FF1022404631460BF024FC31461022F9
:2017A000804648460BF01EFC85F8330085F83280522185F83110312385F83030412085F8A1
:2017C0002F000097E279C8491020334609F09AFC46E00097404640F25F510122C6A3019756
:2017E0000DF0E4FD0097404640F262510122C7A301970DF0DBFD4946102009F083FCC849C7
:20180000A2791020334609F07DFC3123EB774120A877592285F82020112305F11000009357
:20182000CB490190A2793346102009F06BFC0097404640F272510122C6A301970DF0B6FDF9
:201840000097A279BFE7C046ED0702102B460093404640F2BA5101220193CAA30DF0A6FD99
:201860003E98C78AD0F81880002F424600F08580D119491E7FE0C0465363616E6E696E674E
:201880002073746F707065643A206E756D5265706F7274203D20256400C012F8017B002F88
:2018A00069D01078022803D0032818BF3A4462D17F1E521CFFB2022F5ADB7810914257D90A
:2018C0001378F02B02D15378FF2B06D0BF1E401E02F10202FFB2F1D14AE001204EE0C046A0
:2018E00000C046C0526563656976656420416476657274446174613A201B5B33326D2573C1
:201900001B5B306D00C046C0436F6D62696E65642052656365697665642025640A00C046CD
:20192000436F6D62696E65642063757272656E742025640A00C046C05265636569766564C3
:2019400020616476657274207265706F72743A2070726F63657373696E672E2E2E00C046FE
:20196000436F7272656374206465766963652100012F08BF521C91428FD83046E77840B37D
:201980003E9890F801A00F2F00F1020921DA381C0CD004F1E906054648463146062217F080
:2019A0009FFEB0B16D1E06F10706F5D149460D6804F1E803C7EBC702D0187F1C401C898885
:2019C0000560FEB281803E9D03F802A0D5F81880E670B8F1000F00F0B280404616F09AFDC1
:2019E000ADE0C046537461747573203D20257300353900C0344500C0650202106425002032
:201A00003D9840680078010911D24009C0F097800E2018F0F7FC92E0353200C035323A2051
:201A200052656C617920636F6D6D616E64000D2018F0E8FC002840F082800025A5612E4698
:201A4000404640F612210122009655A301960DF0ADFC64236149E5702846324655E53D982E
:201A600040680078D0B1801E69D1022017E0C0464368616E676564206164766572744461D9
:201A8000746120616E64206164766572746973696E67207374617274656400C000200DF169
:201AA000F10115F0CBFC4AE04946102009F02AFB45E017F069FC42E034653A204E4F5420AA
:201AC0004F4B00C03D984068B0F8010011F030FD3AE043483D9F009078684249C28800236F
:201AE000102009F00FFB2AE0ED7401103D98406812F028FA23E0C04635393A20416C6C208C
:201B00004F4B20636F6D6D616E6400C044697361626C696E67205363616E6E696E6700C0CE
:201B2000850901000020009040F2D551012221A3019040460DF03AFC24A018F0B5F93D988E
:201B4000406808B116F0E6FC3FB0BDE8F08FC046B9D400005570646174696E6720616476FF
:201B60006572744461746120616E6420656E61626C696E67206164766572746973696E672D
:201B80002E2E2E00496E636F72726563742064657669636520646973636F7665726564003A
:201BA0004C65667420427574746F6E2050726573736564005363616E6E696E67206861737B
:201BC00020737461727465642100C046696E207363616E20656E61626C656400E1F400105B
:201BE00040E20100B58601002DE9F84F054688B0A978DFF83C67002710294FF0060A3CD848
:201C0000DFE811F0110092039203920392033C00CF0092039203F502150100014703920375
:201C2000CB020D038A036878002826D119F090FC044619F089FC054619F082FC8DF8000077
:201C400022461021022017F077FB2A461021032017F072FB6A460121042017F06DFB9DF81E
:201C60000000012818BF032807D1012019F064FC02460621062017F05FFB55E368780028A1
:201C8000FBD195F80CB06C8900900023E97801AA01F00101281D0FF041F800284FF001089B
:201CA00075D19DF80400FFF721F88146BBF1080FF07908BFB846800018F070FD050003D1B0
:201CC000042017F083F92FE370789DF8041002280CBF0120002000905B464A462046FFF767
:201CE0004BFA1422002102A818F0DCFB9DF804001AFB00F0243002AA1021C0B217F0F4FA89
:201D0000B0B91022FF2102A817F089FF80B99DF804001AFB00FA0AF1250306AA0421D8B26C
:201D200017F0E2FA02AA09F00101204619F000FCF1799DF80400890670302A46090EC0B283
:201D400017F0D2FA98B92846FEF7BCFFBA4609E005EB8000018819B18278204617F0D2FD5F
:201D60000AF1010AF1795FFA8AF08842F0D3707A30B95FEA897003D53178204617F050FA46
:201D80009DF80400FEF7EFFF284618F00FFD7078022805D1B8F1000F02D0204613F0A0FCCE
:201DA000C2E2A888FFF7C9FA19F0BEFB0028F7D1B07C012808D1FFF702F8306AB7740422DB
:201DC000002118F06FFB17E0F07C012803D1FFF79AF8F77410E000240AE0306AE5B2415D50
:201DE000012904D1E0B2FEF7FBFF316A4F55641CE0B2B1798842F0D3502017F053FEFEF79E
:201E00008AFF91E219F08CFB00280CD0B06900281CBF0468002C07D0286900906B7B2A7BFB
:201E20006989E81CA0477EE26889012171E26878002840F0EB80A879C10740F1E7800822B1
:201E4000002105A818F02EFBA88819F0A5FB04006FD0D5F81480B8F1000F27D0062200210E
:201E600008F1110017F0DBFE58B306220021404617F0D5FEC8B998F8100000F00109BB46A8
:201E80000BF1010B88F811B0009700230022494608F111000EF042FF00285FFA8BF002D176
:201EA0000028EDD101E000280BD16F61607900F001008DF81A000622A11D05A818F0E8FAA1
:201EC00024E0D5F81480B8F1000F1FD098F8100000F001008DF81A00062208F1110105A8E6
:201EE00018F0D6FA6079012805D10622A11D04F10C0018F0CDFA062208F11101A01D18F084
:201F0000C7FA98F8100040F002006071A879410720794CBF40F0020000F0FD002071A8797F
:201F2000010720794CBF40F0200000F0DF00207106E0FFF721FA18B1307804210EF030F892
:201F4000A9799DF81B00890801F0010108438DF81B00A97900970A074CBF082100210843D6
:201F60008DF81B0000239DF81A1004AA05A80EF0D5FEF0B1002400E0641CB179E0B2884208
:201F80000AD2F069E3B20622FF2100EBC30017F046FE0028F0D009E0DFF898231078002823
:201FA0001DBFDFF89413086804780C468DF8104019E06869B8B19DF810001AFB00F0233084
:201FC0006A461021C0B217F08FF960B91022FF21684617F024FE30B99DF81A0005A900F0A7
:201FE000010019F0D5FA9DF81000B179884280F0D280F079800018F0D1FB04001DD10420DA
:2020000016F0E4FF0A27A888FFF797F9B06900281CBF4368002B0FD06A78A888012198470C
:202020006878002808D1A879C10705D5B369A8885C683A460321A04775E19DF810001AFB51
:2020400000F0203005AA0821C0B217F075F99DF81000FEF788FEF2799200FF21204618F0D6
:2020600021FAF1799DF81000890670302246090EC0B217F061F9F0699DF81030082205A9AF
:2020800000EBC30018F004FA6A6992B1107C002302F1110100F0010019F03EFA6A6942B1CA
:2020A0009DF810001AFB00F023301021C0B217F043F9AA6842B19DF810001AFB00F021303D
:2020C0001C21C0B217F038F92A6942B19DF810001AFB00F022301C21C0B217F02DF9EA6869
:2020E000AAB19DF810001AFB00F024301021C0B217F022F9E86800F110029DF810001AFBB5
:2021000000FA0AF125030421D8B217F015F9707C08B1FFF75CF8B5F80480706A4FF6FF7927
:2021200048B906F1140100910223844A4946012019F0EEF97062716A11B3FF200390022227
:202140000292019707A800900DF11203B28A404606F09CFE68B99DF812009DF8131000EB44
:20216000012290B228B1706A418992B24046FEF7D8FCB28A706A0023494619F0C5F9706289
:20218000204618F013FB307A0028A8887FF43CAFFFF787F83AE7152735E7687806281BD17B
:2021A000A88819F0F9F9B8B1317C012904D013D3032907D00CD30FE04179A8880022FFF727
:2021C00035F809E00022002140F2094006F01AF9A888052119F094F9B06900281CBF43686F
:2021E000002B03D06A78A888022198479BE000970023E97801AA01F00101281D0EF08EFDCB
:202200000028F3D19DF804001AFB00FA0AF1250305F10C020421D8B217F08EF883E0B0694B
:2022200000281CBF4368002B03D0A888002200219847707810B9A88805216AE0A88819F016
:20224000ABF9040070D0A87AC10712D5009700236179002201F00101A01D0EF05FFD0028DD
:202260001EBF60790028012803D0E868C0F3402028B1B07B022807D1A87A010704D4A888E9
:20228000032119F039F94FE06179A88805F1080227E02F7BAD88284619F07EF9040042D0BC
:2022A00019F03EF900283ED100900023617901AA01F00101A01D0EF031FD28BB9DF8040017
:2022C000FEF714FD07F00C07042F11D0082F0BD00C2F0FD100F0090109290BD061790022AA
:2022E0002846FEF7A3FF1EE010F0090F02D1F5E7C107F3D501220092A37C9DF804100246BF
:202300002846FEF739FF0EE070780028E6D10521284619F0F1F806E0FFF72EF818B1307874
:2023200004210DF03DFE0127384609B0BDE8F08F5C2200209B3C0020343C0020D4CF0100F4
:202340002DE9F84F012016F067F9012816D1DFF860663078002119F0CBF8040004BF002070
:2023600016F034FE00202072201D0EF01FFC19F0BBF8050003D1812019F0B2F813E301201D
:20238000687105F59777DFF82C06DFF82C264178491C4170A879A0724020317811700EF0A0
:2023A000A9FB2860616D4A78206DD10619D5816C0A681179032904D00CBF0120002016F014
:2023C00005FE206D816C90F86C000A6802F1080A01281CBF002016F0F9FD216D486F29681F
:2023E0003CE0C16E0A681179032904D00CBF0120002016F0EBFD206DC16E90F898000A684E
:2024000002F1080A01281CBF002016F0DFFD216DDFF8A825D1F8A0002968DFF8A435C860AD
:202420009AF82660032E19D8DFE806F002050C0F00F5B06001E000F53470C8601088F887C5
:20244000118808E000F5355001E000F6B870C8601888F8871988A5F8741102E000F5B06091
:20246000C8602868DFF85C65C168DFF85C8501F59071C16006229AF80000C0F3801038706E
:202480000AF1020105F5947018F002F804220AF10E0105F1240017F0FBFF306895F8069038
:2024A00000F10C0304220AF10E0103EB491017F0EFFF3068AB7900EB431303220AF1120180
:2024C00003F1100017F0E4FF05F12C099AF8150089F8020002220AF1160105F1300017F056
:2024E000D7FF02220AF1180105F1320017F0D0FF02220AF11A0105F1340017F0C9FFB9F8EC
:202500000800688402220AF11C0105F1360017F0BFFF99F80200B9F80A10400089F8020079
:202520000901B9F80400A9F80A104000A9F8040089B2B9F806004000A9F8060003046A8C66
:20254000521CDB0B5A438A4201D280B230B998F8000080210DF024FD3B2131E105F12E01EE
:20256000284618F0B9FF0520A881284618F0B0FF05220AF11E0105F1610017F089FF9AF801
:202580002300400989F8000018F09EFF6882618D401AB88105F161019AF82300DFF82C74BA
:2025A00000F01F0089F80F004FF01C0A284618F087FF616D4A78206DD1064CBF816CC16E00
:2025C00041F62102086800210171A97938681AFB01F142520021AB791AFB03F303445980D1
:2025E000AA791AFB02F210444160616DDFF8E0034A78D1060DD5DFF8DC138A7851060AD5B9
:20260000DFF8D423138841F20A418B4208BFDFF8CC03C5F89C01D5F89C11284688473A68E6
:20262000A97902F10E031AFB01F15854AA7938681AFB02F202440020D0733968A87901F198
:202640000E021AFB00F0115C89F80D10606D4178CA061DD595F8960108B916F0B7FCA97952
:2026600038681AFB01F1014495F89601421E0A74A87939681AFB00F00844002141743A68E1
:20268000A97902F112001AFB01F1002242522BE0A97938681AFB01F10144206D90F84020C8
:2026A0000A74A87939681AFB00F00844216D91F841204274206D3968AB79403001F1120293
:2026C0001AFB03F34188D15205F5CB710078012200F0030082400A70226D92F84000800822
:2026E00014BF0120022008713968A879DFF8F0B201F1140231681AFB00F301EB4010D0500B
:20270000A87939681AFB00F00844B6498161DBF814000078C107DBF8141009784CBF1F20DC
:202720000F208A07DBF81410097848BF40F020004A07DBF81410097848BF40F040000A07B9
:202740003168AA7901EB421348BF40F080001872A979306800EB41120B2050723168AA799A
:2027600001EB42100421A04A81721078012806D13168A87901EB40120121D17207E0DBF87A
:2027800024003168AA79407801EB4213D8723168A87901EB40121F2111763068AA7900EBB1
:2027A000421100204876A87918F086FEAA79316852018850AA7931685201885820B9072164
:2027C000284618F075FEEEE08848AA79016801EB021018F069FEA8793168844B01EB4012B2
:2027E000196801EB00105060A979306800EB41125168C9F83C10AA7952018158C9F844108A
:20280000042198F800000DF0CBFB616D4A783868D10648BF02210AD4A9791AFB01F10144C3
:202820000A7C02F00302022A14BF04210621B9F8042095F806C04FF4C8738A18698AAA618A
:202840005143B1FBF3F35B1C6B611AFB0CFCD5F800E06044DEF80CC040F6C41101FB02C234
:20286000D21AA2F5A8628260AA7938681AFB02F283189A682B689A6000F10C03AA791AFBBB
:2028800002F20C309B5C03F0EF038354A8793A681AFB00F002F10C030C321B5C03F07F0361
:2028A0001354A8793A681AFB00F002F10C030C321B5C03F0F00343F002031354AB793868E9
:2028C0001AFB03F31844427B02F0F00242F001024273AA7938682B681AFB02F20244906869
:2028E00018613068AB7999F802C000F11402686940005B0111FB0C0000F5F660D05095F8CC
:20290000960104280DD13068AA7900F114034FEA421C143053F80C20AB795B0102F56162C7
:20292000C2503068AA7900EB4210C37C03F0F00343F00403C374DBF830003268AB790068CE
:2029400002EB431CB9F8062042436423B2FBF3F35943A1F59661CCF81C103068A97900EBF7
:202960004110C27E02F0F00242F00402C276A97938682A681AFB01FA00EB0A0151602846F9
:202980000E2118F08DFD1A4907200870204615F0F1F9AA790021204618F07EFD2868154904
:2029A000154A41618261BDE8F14F00F027B800BFD50F0020780E0020D70F00208E0F002053
:2029C000900F00209C0E0020C70F0020980E002081010210C00C00209A0F00204DE5011026
:2029E00080D50100980C0020CC0F0020A40E0020C80F0020D1770100020480802DE9F84F4D
:202A0000DFF8A055696884B0019121B905B0BDE8F04F18F03DBD0978DFF88C65DFF88C75BD
:202A200001291CBF0229042946F2A81A40F6C41941F64C5805D0402918BF802900F05681CC
:202A4000A7E217F0ADFF0028FAD0019800780AF0C9FD009018F018FDDFF854150446487880
:202A6000002800F0C78005F0AFFB17F0C1FC8246002CDAF8000001900146D1F804B003D0A6
:202A800000980DF0BBFB022800F0878000990A78012A04D0022A0CD0042A41D079E218B93D
:202AA00018F0EEFC4044A0600120A87011213970F4E005223A70C8B918F0E2FC8044DFF8E5
:202AC000F4246069C4F808801368DE69DFF8E8341978B21D01EB8101525ADFF8D81409FBDB
:202AE0000289C0F820900A68A06810616069C17F01F0EF01C1776069C17F41F08001C177E3
:202B00006069C17F01F0F00141F00201C177DBF808206169DFF8A40482184A62022199E038
:202B200006223A70C8B918F0ABFC8044DFF890246069C4F8088013685E69DFF888341978D1
:202B400006F10C020901525ADFF8741409FB0289C0F820900A68A068D060DFF86404016812
:202B6000087C0FF0B5FE6069C17F01F0EF01C1776069C17F41F08001C1776069C17F01F010
:202B8000F00141F00201C177DBF808206169DFF82C0482184A6204215CE0019801788029AA
:202BA0000CD10820DFF8201438700A78DBF81400012A1ABF716A0978012113E007203870B0
:202BC0009AF8060017F09AFD0446207BC10700F1AD80DFF8F4030178DBF8140001291CBFC1
:202BE000716A4978C1729AF80600DFF8C41388700198C9E1009800281AD00199009A00782F
:202C0000DFF8BC6391420DD1012804D0022845D0042866D002E0002C40D1C0E1002016F089
:202C2000D5F93BE0012804D0022815D0042837D0AFE1002CF1D018F023FC0146A0685144E4
:202C400018F01AFC18B918F01BFC4044A060112038700121A97021E0052038700221A970C4
:202C600018F00EFC0146A068514418F005FCA8B918F006FC8044CF4A6069C4F80880136885
:202C8000DD69CD4B1978AE1D01EB8101755A09FB0589C0F820901168A0680861009873E16D
:202CA000062038700421A97018F0EAFB0146A068514418F0E1FBA0B918F0E2FB8044C4F895
:202CC000088032685369BF4A6069117803F10C0509016B5A09FB0389C0F820903168A0684E
:202CE000C8603068007C0FF0F3FDD7E7B0494878002800F0E18005F067FA17F079FB824620
:202D0000DAF800000290D0F804B0A948807817F06FFB039001980178402913D19AF80600EF
:202D200017F0ECFC0446207BC1070BD59AF8060017F05EFB052118F0BBFB207B00F0FE00B2
:202D400020732CE117F026FE10F0070F0CD0A8780AF048FC009018F097FB040004D00299BB
:202D600000980DF04BFA022800F0828000990A78012A04D0022A0BD0042A3CD075E018B9DC
:202D800018F07EFB4044A06011203870012169E005213970B0B918F073FB8044854A6069E0
:202DA000C4F808801368DE69834B1978B21D01EB8101525A7F4909FB0289C0F820900A6894
:202DC000A06810616069C17F01F0EF01C1776069C17F41F08001C1776069C17F01F0F0017A
:202DE00041F00201C177DBF808206169734882184A62022136E006213970B0B918F040FBEC
:202E000080446F4A6069C4F8088013685E696D4B197806F10C020901525A694909FB0289A1
:202E2000C0F820900A68A068D06065480168087C0FF04EFD6069C17F01F0EF01C1776069B1
:202E4000C17F41F08001C1776069C17F01F0F00141F00201C177DBF80820616957488218F3
:202E60004A6204210098A9708EE0002016F0AEF8039850451ED0029953480A78802A0AD13B
:202E80000821397000780128DBF814001ABF716A0978012109E007223A7000780128DBF851
:202EA00014000EBF0121716A4978C1729AF806003F498870029867E017F06CFD10F0070FC1
:202EC0006DD0A8780AF08EFB064618F0DDFA04463078012804D002280DD004282DD05EE08A
:202EE000002C5CD018F0CCFA4044A060012111203870A97047E00520387018F0C1FA014616
:202F0000A068514418F0B8FAA8B918F0B9FA8044284A6069C4F808801368DB699F1D264B0F
:202F20001B7803EB8303FB5A09FB0389C0F820901168A0680861022024E00620387018F057
:202F40009FFA0146A0681E4F514418F095FAA0B918F096FA8044C4F808803A685369194A36
:202F60006069127803F10C0112018B5A09FB0389C0F820903968A068C8603868007C0FF021
:202F8000A7FC0420A870304605B0BDE8F04F0CF031B805B0BDE8F04F002016F017B805B01B
:202FA000BDE8F08FDC3B002080D50100C80F0020780E0020500F0020D80F0020F0D8FFFF77
:202FC000540F0020D90F0020CC0F00202DE9F04FADF1240D18F04CFA13F0FAFC071C00F0ED
:202FE000758216F081FA8B4A002132F80C6F002E40F068824FF6F87616805760864CA17093
:20300000002595607968E16117F013F9A846D6A7CDF8008040F2E9110122D7A33846CDF8A4
:2030200004800CF0C3F9292040F2ED110122D8A300903846CDF804800CF0B8F941204FF495
:20304000F7710122D5A300903846CDF804800CF0ADF9312040F2EF110122D8A30090384645
:20306000CDF804800CF0A2F904F144073846294618F0FAF9D84841F28832D84927622B4620
:20308000009004F1500013F061FDD54D05F1180005F10C010EF01AFAD249A86017F086FC09
:2030A000D14FA8684FF4E0213A46521E15F0AEF8A8684FF4E0213A4615F0A8F8CB4FA8685E
:2030C0004FF0C0513A46521E15F0A0F8A8684FF0C0513A4615F09AF8DC49CDF8008005F13C
:2030E0002400C822434613F031FDD9486860701D13F0E2FFD74DD8494246152305F134007F
:203100000090102007F0FEFFD84910204246022307F0F8FFD6491020FB2240F6480307F02B
:20312000F1FFD449102007F0EDFFA07815F046FED1490246102007F0E5FF4FF4806001215C
:203140002A4605F05FF96A1C40F20240012105F059F9AA1C40F20340012105F053F9EA1CAB
:2031600040F20640012105F04DF92A1D40F21140012105F047F96A1D40F20D40012105F03C
:2031800041F9AA1D40F21240012105F03BF9EA1D40F20C40012105F035F905F108024FF452
:2031A0008360012105F02EF905F1090240F20F40012105F027F905F10A0240F20740012198
:2031C00005F020F905F10B0240F21440012105F019F9C14910204FF0FF3207F093FFBF49F4
:2031E00010204FF0FF3207F08DFF1020BC4F0090BD4ABC48132339460190102007F082FFE8
:20320000202017F0F3FC0146B8488146816091B104E0C04610250020E00F0020F01D15F0E7
:203220005FF9B349102009F11402009011230191394607F067FF012002278DF819004FF0A1
:20324000030B8DF81A704FF0040A8DF81BB0A9498DF81CA004AB40460A6809791A600DF1E0
:203260001902197101210DF0B3F901200DF11A0201460DF0ADF901210DF11B0238460DF001
:20328000A7F9012107AA58460DF0A2F9052104AA50460DF09DF904F1240004F13C0296495D
:2032A000C9F80400102007F02DFFA07815F086FD92490246102007F025FFA07815F07EFD50
:2032C0008F490246102007F01DFFA07815F076FD0C358C49009703460C221020019507F01A
:2032E00011FF04F5AA7906F1070ADFF81CB2E06941464FF040424FF0FF3318F0B1F8071C1F
:20330000F5D0CDF8088003A806A902AA12F048FA002840F0BA809DF80C000DF10E0115F00C
:20332000F9FA002840F0AE80BDF80E00ADF80C0016F0B0FCBDF80C00102840F0A180A0788C
:203340009DF81810884240F09B80029801888A4500F096800178913900F080801F3947D001
:20336000203900F08B808BE06D756C74695F726F6C652E6300C046C0496E697469616C69C8
:2033800073696E6720426F6172642E2E2E00C0464368616E6E656C3A2025640043757272AC
:2033A000656E74204465766963652049442028616C706861293A20256400C04643757272AD
:2033C000656E742044657669636520494420286E756D293A20256400D42B0020258301001D
:2033E00028270020BD8001000E0005800E0000100546408816F04AFDC6B2082E01DB16F07F
:2034000070FF6A8810205946012307F07BFEB8B128790B2814D0012802D1297A0A290FD016
:2034200013280DD0012802D1287A122808D0B00000EB06104844007C10B128460BF078FA6F
:20344000297905F1080018F007F819E0A1A3010015A1010064250020454F010040781028A2
:203460000ED10820414605F0E5F809E0111C02100D520210397F0110F16C021001F0CCFD61
:20348000029810B1029817F071FBF80FFFF42FAF206A17F0DDFF00287FF429AF206A054637
:2034A00017F0D2FF854208BF454602D0856815F031F8002DECD02846FDF7C8FF284615F0A9
:2034C00029F8E5E7491C0629FFF48FAD17F0BEFB09B0BDE8F08FC04655950100C17C010070
:2034E000998E010020D40100341C00202C2000202CD40100EAD3010009960100D96C02101D
:203500002D6D02103DC70000D54D02102DE9F84FDFF8B054A9780024FF2904BF002015F03A
:2035200055FDA87816F064FF054605F1680605F5C9773168086805F1900808B1EC8311E017
:20354000B07B002804BFB07E00280BD198F80010002904BF3878002804D1287F012804BF57
:20356000688CE8832989E88B4118491C6981284617F066FF01281EBFDFF84C040178012975
:2035800003D12989EC83491C69814FF6FF79B07E01280DD1B28B6989288917F04DFF38B1D9
:2035A000298968894A1C93B298422FD0B08B23E098F8000001280FD1B8F802206989288998
:2035C00017F03AFF40B1298968894A1C93B298421CD0B8F802000FE03878012816D17A8843
:2035E0006989288917F028FF80B1298968894A1C93B298420AD0788892B2904206D048444F
:20360000688180B217F014FF4844E883387801280FD128897988401C80B2884209DB7C79E2
:203620003C71022038702346A979224600200CF051FC05F59A71087920B128890021401C32
:20364000E983688105F12E08B07E01284BD12A89B08B521C92B2904245D1688105F1860188
:20366000284617F039FFB08C688400212977E983E88969894118A981B08B298917F0D8FE98
:203680008146B8F80410308C728C01FB0909F08C8A4204BFB8F80810884202BFB38CB8F88A
:2036A00006108B4206D000090090B38CA9795208002004E0000900905208A979302017F08D
:2036C000B3FEB07F88F80000718CA8F80410B08CA8F806002846F18CA8F8081017F0F8FE57
:2036E0000220B07601E0B8F80490EA8B501C00FB09F040F6C41909FB00F100912B68D3F891
:203700000CE07144D960B14B1B681978890903291BD1AF4BAF49DB7BDB0702D500230B8066
:2037200013E00B885B1C0B809BB2012B03BF05F59A71C98801F2DC51698A41434FF4C8735B
:20374000B1FBF3F1491C696107E0698A41434FF4C873B1FBF3F35B1C6B61A86185F8202033
:203760004FF01C0BDFF870A2AB79DAF8000000F108021BFB03F3D1582A68116100F10801D6
:20378000AB79D26868691BFB03F3121ACA50DAF80000AB7900F108021BFB03F3D1582A68F0
:2037A000916000F10C02A9791BFB01F10C30535C03F0F00343F002034354DAF80010AB7949
:2037C0008A1C1BFB03F30021D152387908B915F0FDFBDAF80000AA7900F1100138791BFBC6
:2037E00002F240088854A879DAF800101BFB00F00844002141743879042814D1A879DAF8D1
:2038000000101BFB00F001F110021031135C3A7A43EA82030B54AA79DAF800001BFB02F21A
:20382000024420205074DAF80010A87901F112021BFB00F0002111526849A8790A6802F174
:2038400014034FEA401C143253F80C00AB79D5F814C05B0100EB4C00D050B07E02280DD171
:203860000A68AE7902F11403760114329859AB7998F800605B0119FB0600D0505448C27B74
:20388000D0075CD5DAF80000AC7900F108031BFB04F408301A59AB791BFB03F3A2F5A862A3
:2038A000C250DAF80000AC7900F108031BFB04F41A592B689A600098121A1A610868AC7921
:2038C00000F11403640114301A59AB795B0102F5F662C250387904280BD10868AC7900F1A4
:2038E0001403640114301A59AB795B0102F56162C2500868AB7900F114025B01D058C5F86D
:2039000034016427364A0B68106BAE79006803F11C04B8F804304343B3FBF7F7760109FB55
:2039200007F0A0F59660A0512E480378012B30D10868A97900EB41120120D07230E0042C83
:203940000BD10868AC7900F11403640114301A59AB795B0102F56162C25038790A68AC793E
:2039600004280CBF4FF4AA504FF4E66002F1140364011A59101AB8F8042009FB02F2A2F51B
:2039800016729042BDD30821284617F091FD012016E0506A0968AA79407801EB4213D87269
:2039A000A879DAF800102A681BFB00FB01EB0B00506007210C480170284610F051FC0020F2
:2039C000BDE8F28F780E0020D10F00203C0F0020980C0020883C0020980E00209C0E002078
:2039E00080D50100CC0F0020C80F00202DE9FC47D54C0F460546F80B80F000826078DFF8C1
:203A00004C83B90F80F0A481B90880F09581F90A80F0FF80390B80F0CA80380907D2F80F22
:203A2000C0F0228227F0804711F0F0FA1CE217F0D5F8814615F0F6FF002800F0B280082064
:203A400016F0C6FF002840F0AC80802016F0C0FF002840F0A68068460EF02EFB012803D162
:203A60000098002800F09D8094F8F101002840F0988000250126E8B216F000FD48B1837AAC
:203A80003BB1867290F9090006FA00F0C0B214F0F5FB6D1C032DEED30320207604F1D4005E
:203AA00017F096F8484617F0BBFCD14800252A460168056050F8081CCE4940F8085C04F195
:203AC000540015F0DFFE40460068006B8047A168401A010B206AC1F1FF3282422CBF0844B9
:203AE0004FF0FF30206294F8240020B12069216AB1EBC02F25D915F0A5FF294600B1314678
:203B0000081C1BD0BC4840F6090101804580417B06F00F0221F00F010A434273017B05F0B5
:203B20000F0321F00F0143EA010202732946416016F01CFE418811F4406FFBD084F8246035
:203B4000256213F0E5F8CC4829460560022015F037FD022014F0B6FF11200CF0B3FB20786D
:203B600018B96068483017F055F8C448007810B90E200CF0A7FB94F8250020B184F8255054
:203B8000052014F09FFFBE48E0612576B4F9A800B4F9AA10884214BF022007200FF002FCDD
:203BA00002E0484617F03CFC27F008073CE720B1042014F087FF00206070656814F042FB90
:203BC00038B12846ED696FF4807100224FF00073A847E06858B140460068006B8047E26866
:203BE0006168801AC860000BC8600026E660A54904F15400002215F045FE0221D4F8940077
:203C0000217618B104F5927017F016F827F400670AE716F0E3FF064615F004FFD4F88C101D
:203C20000028894600F0828000297FD09649042504F154000022257615F024FE304617F071
:203C4000EFFB04F1D40016F0C3FF40460068006B8047E0604FF0010884F80180284614F0D2
:203C600049FFD9F810006060D9F81000416AC90803D3036A294600229847404611F000FDC7
:203C8000606880F8158060680AF0AAF96568D5F808A040F60A02D01F564600F1010C00E0FD
:203CA0001E46736833B119888A4203D0884218BF8C45F5D100217160727B08F00F0322F06E
:203CC0000F0213437373D9F80C201288904224D06046904221D02B8E03B3696305F130026E
:203CE000518095F83C0001F00F0320F00F00034385F83C3095F83D0008F00F0320F00F00E6
:203D0000034385F83D307260707B01F00F0520F00F0045EA0001717300E0E160504616F0C1
:203D200025FD5146404615F04BFC02E0304617F077FB27F4806797E009F028FFD4F894002E
:203D400008B927F002078FE0D82B00208C0100104E4A116841F08001116020B1042014F026
:203D6000B1FE0020607016F039FF8246D8F85400016804208847D0B1287DC0B1A068B0B11E
:203D80008146D8F800002E69006B8047A0EB09002861000B2861B04202D2801940082861E2
:203DA00040F6C41181422CBFB0F5967F2961504617F036FB14F046FA80B1EE6928466FF49B
:203DC000807100224FF00073B047D4F88C00002808BF47F0020701D011F018F92846AD6939
:203DE00000214FF080630A46A84727F000573BE0141004400D5F0100A83B002016F0EEFEEE
:203E0000D4F8A46066B306F1280106C90A234FF0E0450B40154008BF002B21D106F1280195
:203E200091E8000306F1280595E8060006F1280322EA090221EA080183E8060017F0F0FAB0
:203E4000B16879B1B9F1000F08BFB8F1000F09D03069B6F93010B5684B464246A84701E080
:203E600017F0DEFA27F4804727B104F59270394616F0E2FEBDE8FC87000004600AD40100DE
:203E8000E5F000002DE70000059A0100CC2108402DE9F04F4FF000094F46ADF15C0D07978D
:203EA000089709970A970B974FF0FF080C9740460D900E900F90109711901290AA4C1397AD
:203EC0004E46149704F1300B1590D7E00C2016FB00B7E068710306AA042316F0EDFD069802
:203EE00007F11605010EB1F1960A16D1C0F38541C0F3014040EA810002280ED19DF81800A9
:203F000028709DF81930FB75149A7A7615993976304610F07FFDB8836FE0149903AA304674
:203F200015F0D0FC02AA3046012115F0CBFC3046022101AA15F0C6FCDDF818C00CF0FF01EC
:203F40000CF0FF00FF2909D0FE2907D07E2905D07C2903D0782918BF702908D1139F37B9E7
:203F6000CCF38541032908BFBAF1000F1DD030460CF06EFA002860703FD1E068710306AAD4
:203F8000042316F099FD149903AA304615F09AFC02AA3046012115F095FC3046022101AAD5
:203FA00015F090FC069800F0FF0028709DF81900069F6870C7F30140E8709DF80E30AB70DF
:203FC0002978FF290BD0BDF80C00FE2907D04FF6FF71814204D1304610F01CFD00E0102092
:203FE000E8809DF80A002871BDF808702F819DF806306B71BDF804206A812878FF2836D00C
:20400000FE282ED07E2826D07C281ED0782817D0702810D0A52808D0242804D00C98401C8A
:20402000C0B20C9028E0129600E011961098401CC0B2109020E00B98401CC0B20B901BE01E
:204040000A98401CC0B20A9016E009980E96401CC0B2099010E008980D96401CC0B208901B
:204060000AE00798B046401CC0B2079004E009F101070F965FFA87F9761CF6B2E578B5426A
:204080003FF724AF109F002F3DD10C9F002F38D10798022835DA0B98022832DA08980228CD
:2040A0002FDA4D452BD00B9FC7B9079FA7B90A9F0998074325D015F09FF8854219DCB9F1AF
:2040C000000F14D094F83200FE2114F053FCE5780120DDF83C8017E0012015E0079860B9E9
:2040E000B9F1000F07D115F087F8854201DC06200AE0032008E00220EBE7022004E0149846
:2041000002E0042000E005200028A07000F0E080401E68D0401E00F0C380401E26D0401E33
:2041200000F0B180401E03D0401E00F0AB80E5E01198FF2804BF1298119084F8330094F8D6
:2041400033200C2784F831205019401E90FBF5F16943401A84F8320012FB07B0808BE086EB
:2041600007F05AFEB0E0C046CC25002015F044F80C26054684F83C5015FB06B0817E84F842
:204180003D10C07E84F83E000BF024F8E2782D1895FBF2F050432D1AE8B284F83200401C34
:2041A00090FBF2F15143401A84F831007C2013F0BDFFFF2810D17E2013F0B8FFFF280BD138
:2041C000159813F0B3FFFF2806D1782013F0AEFFFF2808BF94F8310084F8330010FB06B01C
:2041E000808BE08685E00E9F08F1010090FBF5F184F832806943FF2FA0EB0100C1B284F84E
:20420000311011D10D98FF2804D10C200D9111FB00B004E00146880000EBC100584484F8DD
:204220003310808BE08669E03A46D0B2910084F8330001EBC2015944898B1729E1865DD902
:20424000C91F01AA89B20DF01BFD9DF80F00C0083AD314980090BDF81220E18E94F83300B1
:204260000323891AC91F01AA89B208F083FD002844D1BDF81010002940D09DF8140012F039
:20428000CDFB3BE0FEE7149EB54221DD30460CF0DFF86178E578761CF6B201436170F3E707
:2042A00008F1010084F8328090FBF5F16943401A84F831005FFA88F00CF0CAF86070FE2134
:2042C0005FFA88F014F056FB149802F0CDFD15E014986D1E0C2284F83100014684F8325004
:2042E00011FB02B184F83300898BE1867E2114F041FB94F83200FE2114F03CFB17B0BDE872
:20430000F08F70472DE9F04F0F46780689B027D5DFF8F8231078002117F0EAF804001FD093
:20432000DFF8EC0301688847054616F00FFA6168884204BF40F2014017F06EF8002020723D
:20434000201D0CF033FCDFF8CC130A6828469047204613F00FFDFF223C21204617F09CF894
:20436000B80604D50CF0ACFF87F02000CAE1F8070CD516F0EBF930B100218160DFF898039E
:20438000006800B1804787F00100BBE1380704D507F07EFA87F00800B4E1F8060FD500218B
:2043A000002200230691059204910393029101920091022017F02CF887F01000A2E1B80792
:2043C0000FD500210023069105910491039302910191009101223C2017F01AF887F0020096
:2043E00090E179074FF01E08CC4EDFF834A340F1CF80CC480022002108920791007817F017
:2044000077F80446C8488178FF2904BF002014F0DDFDA07A15F0ECFF05469AF8000095F87D
:204420002E91002805F5947B69D0606D807A022818BF032807D130680D3016F0E5FF10B900
:204440003068C11D07915946484616F0D9FFA0B3606D807C3368002818BF012804D1194630
:20446000584616F0C9FF04E05A464946184617F097F8FF2843D018FB00F830684044062240
:204480005946C01D16F004F8306810F80810404400F1010BC01D41F0020908900622616DBE
:2044A000C87A00F0010085F82E01606D00F10C0105F5947015F0ECFF21E05946484616F030
:2044C00097FFE0B130685A46494617F069F8FF2815D018FB00F8306840440D3016F094FF7D
:2044E00058B9306840440D3016F08EFF002801BF30684044417F012901D149F0020905F1C5
:204500002C004B46017806914289120905920122698C0491C0880899029140080390CDF888
:2045200000B0079801900020A97916F071FFD5F89C017E498842A8790CBF0021012116F0B3
:2045400053FF7B49AB790A6838204343134401225A70AB790C68434323449A70AB790C6866
:2045600043432344DA700C68AA79231D424301249C54AA79096810FB02F0084400214171E3
:204580000122A979072004F06AF987F00400B9E038060FD500210023069105910491039386
:2045A00002910191009101223B2016F031FF87F08000A7E0F8045DD55E4930680C680D30F5
:2045C00016F022FF002844D13068C11D0D3016F007FF3EE0606D4178480704F13E0526D592
:2045E000287802281EBF03286878012830D16978306804F1380216F0D3FF8146B9F1FF0FE0
:2046000015D0306818FB09F948440D3016F0FCFE68B930684844C11D0D3016F0E1FE306862
:204620004844C11D062204F1380015F031FF2878022818BF03280BD130680D3016F0E4FE21
:2046400030B93068C11D062204F1300015F020FF2468002CBED13848DAF8042000784FF412
:20466000805112F02FFF10B18E2016F0B5FE87F4805047E0B80505D516F05CF92F49012014
:204680000860FEE7780504D50BF0BBFB87F4806038E0780405D5812016F09EFE87F480407F
:2046A00030E0B9042DD5264C206810B1002014F08DFC4FF0FF3020600020224C0FF0A6FAA8
:2046C000216851F8202F684690471F494A6B086BC96A24681D4B019200900293ADF8101000
:2046E0006B461B4A1B491C4803921C4A079225681B4AA8471B49086005F05CFE87F4005081
:2047000000E0002009B0BDE8F08F00BFD50F0020CC240020D0240020480F0020680F0020C7
:20472000880E0020D70F0020780E00204DE50110103C00204C0F0020C70F00207C05204313
:20474000380F0020200F00202C2600202DA701003DA70100402A0020280800201EFB008004
:20476000EC0A00201C0F00202DE9F84F0546DFF81C04DFF81C640278002A84B048D0052AC3
:2047800056D0062A58D0072A18BF082A00F0D1800A2A00F0C481112A40F0EF81DFF8F433DE
:2047A0001878002116F0A4FE04001EBF606D407810F00C0F2CD0216DC0064CBF886CC86E9A
:2047C0000622016801F10805A91C684615F060FE287800F00F0105291AD16946C0F38010C8
:2047E00016F00EFE002813D03168684616F004FE0546316804F1380016F0FEFD85420DD097
:20480000606D4178C80604D440F2014016F004FEB9E1607B40F002006073B4E133681E2009
:204820004543581906226946C01D15F031FEAAE1012016F0CDFDA6E1DFF85C53286816F078
:20484000C3FD0400F7D020790328F4D1207A00F00F01072938D1DFF8440300684169497A7E
:204860004A1E11425ED0617A04F10A035A5C02F03F02242A56DDA17A8A09012A52D111F00B
:204880003F0F4FD0007C15F0B3FDE17ACA074CBF04F1110204F10B028B0748BF921D0B07DF
:2048A00048BF921CC90648BFD21C1621127852094A43BB498B180A31EB608A5A42869989DB
:2048C0008186DA89C2862DE000F00F00082829D1A17A880926D129B3B0480168087C15F087
:2048E00087FDE17A074688071CD5062201F001015143601800F10C01684615F0C9FD207AD4
:20490000C009FF280ED0694616F07AFD50B1306800F10D01684616F053FD18B9052138468C
:2049200016F0C6FD2079032802D0002014F04EFB1FE1DFF8709299F802000024FF2821D003
:2049400015F056FD804608F16C07786816F03CFD029029460279032A01D0080012D00298B0
:20496000826813788DF8003003F0030001909DF80000830604D50124019820B97868F9E03F
:204980000800F9D0FFE0557802F1020A34B31AF8010B854A13680390382098F806E003F1F7
:2049A0000A0C10FB0EFE01230CF80E30002998F806E0136810FB0EFE9E44039B03F01F039E
:2049C0008EF8243098F80630126810FB03F01044039AC2F3811280F825201BD10198032819
:2049E00008F2171B1BD0B5B1387868B108F1F400017801290FD1654A1178072904D0082994
:204A000004BFC078012806D13D2101208BF801108BF80000B7E065490A78012AFAD098F8B9
:204A2000940090B32D1FEDB29DF8001053462A4640460EF0FFFD00281EBF5D490878002833
:204A400009D101203D218BF800008BF80110306816F0B2FC97E0574801688847064698F870
:204A60000610D9F804204FF4D07041435018002280F8412108F59E700168807949080FF003
:204A800001F94D490A68304690470298002181600198032819D04948416909788A0709D553
:204AA00041690878C1074CBFE81C28461AF80000387201E0812139722A460198C3B299F88E
:204AC0000200514607F0A4FB21E09AF800001CB11B2804BF022D01251C2803D238490B5CEB
:204AE0009D4206D08BF802000721404616F0D8FC0AE02648017808295146404602D116F0FC
:204B000069F801E000F09EFC504611F001FD786816F04EFC0299404616F046FC33E0294C13
:204B2000207880B3284D286816F04EFC58B30179032928D1017A8A061BD5807AE178C0F3AA
:204B40008112914202BF217900F01F00814210D1A078002804BF607800280AD10122A270CE
:204B600004F10C0304F1080209F09EF808B10020A070286816F01CFC05E0002014F026FAE3
:204B8000862016F0ADFC05B0BDE8F08FC80F0020680F0020D50F0020BC0A0020540F0020EC
:204BA000E0070020780E0020103C0020D20F0020993C0020CC240020D024002080D501006C
:204BC0000CD60100943B0020AC0C00202DE9F84F0446002000900CB914F0F8F904F15009CC
:204BE00041F62300D9F800603080002102207180822270733273694620460CF0A1F908B9AE
:204C0000072000E2B06020610021207EB073F173D9F80400017D022904BF002014F0D6F980
:204C2000D9F80400007D012802D10020307405E083280CBF0620022030742020707404F102
:204C4000240BD9F80400DFF8C4834178480615D5D8F83C00416908689BF80510401C01EB2B
:204C60004101405A7082607DC10604D5E07F40F04000E07702E040F04000607506F1580548
:204C80000020287104F130009BF81A10890001F004012971B0664FF01E0A607DC10645D525
:204CA00006F130003062D9F8040041788A060BD5617D01F0FE016175407810F0030F03D1FB
:204CC000E07F00F0FE00E077607D16F069FBA075421C307CC0F38001002392B200F003003C
:204CE00016F05AFBA0831E23A08BE27D00F5967100F59B7012FB01F290FBF3F30A320AFBBD
:204D000013006283C0B208B1C0F11E008018A183608380B2B168A63001EB800131660220BB
:204D2000E871E17F41F00801E17713E000273762607D40F001006075D9F804104A78510793
:204D400044BF40F002006075607D16F029FBA0753766EF71A17D207D61F3050006F188019C
:204D6000207508700322607D48708A7006F128079BF81A00800000F0040040F00300887000
:204D80009BF81B20D20002F00802104388700020C870C6F89000BBF81C00C0F30B00ABF856
:204DA0001C00D9F80410CA7D40EA0230ABF81C000022617D01F0FE01204616F0E9FA40F61B
:204DC0001200B0830021F183D8F83400008880007062D8F83400008800281ABF07213970BD
:204DE0003870617DC8064CBF00200220787041F62401E07D7880398100207881618BB068A2
:204E000000EB8100B0630221822038757975002194F8210000F03F00B875F975D9F8040046
:204E2000807D012818BF022805D100F07F00401E3876797606E083280CBF062002203876B9
:204E400020207876D8F83C00416908689BF80510401C01EB4101405A78830021F166D9F8EE
:204E60000400417811F0030F1FD016F08DFAF066D8F818000078C107D8F8181009784CBFE4
:204E80001F200F208A07D8F81810097848BF40F020004A07D8F81810097848BF40F0400002
:204EA0000A0748BF40F08000287600206876D9F80410574A897C01F0030169769BF81A0082
:204EC000800000F00400014369769BF81B00C00000F0080040F0100001436976107830B109
:204EE00041F040016976287E00F0FE002876E07F16F056FA84F82000204616F041FAE07FD8
:204F0000C1063BD5D9F8040094F820204178521C88074EBFD21E9BF81F001218387EC0F321
:204F200080010023D2B200F0030016F035FAABF80000BBF8000000F59671C1F11E0291FB71
:204F4000FAF10AFB012A8BF804A0D9F8042051788A074CBF00214FF49B710818ABF8000082
:204F6000ABF80200BBF800109BF80420B06B5218A63200EB82007067022001E00020706777
:204F8000E87604F13000C6F8800006F18400D9F804104A78510706D504F138020260687E84
:204FA00040F0200006E01B490A6851680160687E00F0DF006876A17F94F8200060F3050113
:204FC000A17740F60B00B8840021F984D8F83800008880007065D8F83800008800281ABF28
:204FE0000721297028700221697094F845006880D9F804104878810744BF012068800098D2
:205000000AF0BAFA0020BDE8F28F00BF80D50100880E00206C0F00202DE9F04F0546D04C7A
:20502000DFF840B3A878ADF12C0D002876D0401F00F05981DFF83083401E36D0401E20D0DC
:205040000A3840F0AE81A888AF7BADF8080068898DF8127060B9ADF80E00A889ADF81000FE
:20506000E988ADF80A102F89ADF80C70012000E00020CD498DF8130002AA102006F042F84C
:205080008FE1CA49AA88102002AB06F03BF84046343014F0B3FB041C00F0838120890EF0FE
:2050A00047FA204613F036FA7BE1A888054614F0EDFEC6B2082E27DAD249B00000EB0610D5
:2050C0000858071C0BD015F0CDFD10B1384616F053F9384616F04CF9384613F01BFA04F1BE
:2050E0003400076857B181463889854203D14846394614F0D3F93F68002FF5D1284611F0FA
:20510000DBFF6079401E6071082E01DB15F0E9F8002340460093801D02783EE1099500277E
:205120000097B846A2A04FF449710122A4A3CDF804800AF03BF9AAA014F0B6FE2846407892
:2051400000287DD1EF798DF824702E7A8DF82780A8798DF82680EB7A8DF82560AA7A8DF820
:205160002300A9498DF82A306F7A8DF829200DF123068DF8287032680A6070684860B04BC1
:20518000A71D1020A24EA34AA04D0097314605F0B9FF05F1100711200090DFF87C9201974B
:2051A000A27943464946102005F0ACFFDFF86CA2A27910209223514605F0A4FF47460097B4
:2051C000A27959461020434605F09CFF9C4BE01D904A00903146102005F094FF132000908C
:2051E00005F121060196E27943464946102005F089FFE27910209223514605F083FF0097F6
:20520000A27959461020434605F07CFFC6B2009740F26341012274A365A001970AF0C6F837
:2052200025460EB185F8088014F0AEF87C4840F6B83201237B49009005F1740011F086FC4C
:2052400079497A4A10203B4605F05CFF784910204FF4860205F056FF4FF44870042201237C
:20526000009074490190102005F04CFF724F06251020424608ABADF82050394605F042FFBF
:20528000042001220DF122038DF822003946102005F038FF012610200DF122038DF82260A1
:2052A0002A46394605F02EFF40F60200032208ABADF820003946102005F024FF502510209C
:2052C00002235E4F00953246394605F01BFF1020032300953246394605F014FF09988088CE
:2052E0000C3420805DE06E8995F80CC0627905F1040E04F5AA79082300204FF6FF71A9F1A8
:20530000140535F8147FB94205D05B1E00F10100F7D180462CE02E8071460B688046A81C7D
:20532000521C89880360BCF1040F8180D7B267711ED1032015F05AFC071C17D00A20387020
:20534000A7F80160242015F051FCE86080B13549009741F27072012311F0F8FB08E0C0460E
:20536000E00F0020ED740110E00F002014F0B9FF4146082901DB14F0B4FF8800002500EBFE
:2053800001104844057204F1500015F059FC6079082806DA2B460093A2795946102005F08E
:2053A000B1FE0BB0BDE8F08FD9570110F9DC01106D756C74695F726F6C652E6300C046C0A5
:2053C000526561647920746F2070726F63657373204741502066756E6374696F6E7300C005
:2053E00048656C6C6F00C046496E697469616C697365204164766572746973696E672E2EAC
:205400002E00C046401100209F1B00206425002099010110C3940100B9D400001DEF0110B7
:20542000CC2B0020258301008961021021880100C5690110F5F9011095390110D5F401100F
:20544000B02500202DE9F043044685B0084611F801CBDFF8A483DFF8A4333822BCF1030FA7
:205460004FF0000904F5A47704F1660504F1F40600F0C380BCF1070F00F08081BCF10F0FCF
:205480000CD0BCF1110F00F02481BCF11A0F00F03681BCF11B0F00F061818EE1707A8207C6
:2054A00003D40F2184F8191159E008784A7800EB02233B808878CA7800EB02237B8008792B
:2054C0004A7900EB0223BB808879CA7900EB0223FB80087A38724A7A887A02EB00237B81F1
:2054E000C87A0A7B00EB0223BB81487B8A7B00EB0223FB81C87B0A7C00EB02233B82487CEB
:205500008A7C00EB02237B82C87C0A7D00EB0223BB82487D897D00EB0122B948FA82017891
:205520008A0658BF4FF01A0913D504F5AA70049079890391387A029021890191F8880090AD
:20554000BB887A883988204615F00EFFC8B14FF01E09707A410706D40F2084F819012046B7
:2055600015F0FEFEF0E04A460F21204615F0F4FEF8880090BB887A88A179484610F074FFCD
:20558000E9E004F1860079888180BA88C2800222F98801810270A0F80290A18EC91DE983FD
:2055A000628E8188B1EB520F02BFC188A28E914202BF0089E18EB0EB111F1CD0287C0128AB
:2055C00004BF687C0F2809D0687D00281CBF687C1A2803D00F21A976FE2176E0FC212046EC
:2055E00015F05EFFF8880090BB887A883988A07915F0AEFEAFE0102167E0707AC20709D4D2
:2056000031781A200129707002D1FF220D213BE00D215AE085F8009085F806900123337110
:20562000082204F1B00015F08FFE0146022204F1B80015F089FE04F1A808014608224046C9
:2056400015F082FE07460821404615F079FE04F19C0804223946404615F076FE0421404665
:2056600015F06EFE04F1A00015F066FE04F1980015F05EFE6348018841F0800101803078BE
:20568000012805D1FF220421204615F04DFE62E06E7C0F2E18BF142E04D00E2E1CBF0C2E68
:2056A0001A2E11D12F7C204615F03AFE0421204615F0F6FE012F05D11A2EAE7614BFFD218B
:2056C000FB2102E0314600E00421204615F0E8FE41E00E783E761A2E497879766DD11868EE
:2056E000A679811D564301F806901968A37912FB03F20A4482F80990A179787E56E0A7795F
:2057000018680E785743074406F01F0117F82D0FB60938B17878F040C00703D594F89601B3
:20572000042805D120221A21204615F015FE12E0F970A179186812FB01F28118204681F8FF
:205740002F60002109F0DEFB28B998F800004FF480410AF025FC4FF0010932E0A179186842
:2057600051430144888908B981F80690A179186812FB01F2811881F80990ECE709780F299E
:2057800017D01A2919D1A1791868514301441A2081F80690A1791B6812FB01F2991881F872
:2057A0000990F17A01F0FB01F172A1790DF054FBD1E7717A01F0FD0171720146204615F008
:2057C000ABFD687C1A2812D1A87C17281CBF1028FC280CD12E7C204615F0A2FD012E03BFFC
:2057E0001A20A876FB211A21204615F059FE484605B0BDE8F08300BFC70F0020103C0020BC
:20580000200E00209C0F00202DE9F84FDFF860730446386808B90720A8E1C07A012804D0D6
:20582000042012F0F9FE012801D10C209EE1DFF844030078092818BF0A2804D00B281CBFF3
:205840000C280D2801D1212090E1002C1CD0207810B1012813D101E0E01C15D0A0780028DB
:2058600018BF012803D0022818BF032807D16078002818BF012804D0022818BF032840F021
:20588000B280607A10F0050F00F0AD800025A84640F67B4243F6FD7340F67746607A01212D
:2058A000A940084236D004EB08104189A1F1040E9E453EBFB0F80CC0ACF1040E9E4524D25E
:2058C000614522BF018BB0F816C0614557D3C189A1F1060E96453EBFB0F810C0ACF1060E76
:2058E000964512D28C454AD3B0F812C0BCF5FA7F79DA808AA0F10A0EB6453FBF0CF1010C4E
:20590000490001FB0CF1B1EBC00F6CD208F101005FFA80F86D1CE8B20228BFDD3968486996
:20592000417A022904BF002013F050FB38684461617A062990490CBF01200020087015F09F
:20594000D3FD050008BF09200BD03A68A9791174E01C07D0A278E11C402007F067FF08B1FE
:205960000B2003E105F16101284615F0A9FD05F12C06B07B012803DC28460DF0B1FA32E024
:2059800039686078DFF8F481DFF8F4B1DFF8F491DFF8F4A188726078002818BF012807D12C
:2059A000C0073B6854BF594641460622181D40E0DAF800000D3015F027FD30B999F8001005
:2059C000002904BF2078002813D16078C10754BF5946414615F00CFD28B16078C10754BFC4
:2059E0005946414601E01220C0E038680622001D0EE0DAF800003B68C11D0622181D14F047
:205A000047FD62480168DAF8003008680622D91D14F03EFD6078DAF8001000F0010008703D
:205A20006078C107DAF8000054BF594641460622401C14F02DFD207870BBA07885F82E0182
:205A400005F594780622E11C404614F021FDA178DAF80000E21C01F0010115F0A1FD0146AD
:205A6000FF291CBF99F80000002815D0A07840F0020085F82E011E22DAF80030514319445C
:205A8000487F48B901F10D0015F0BEFC20B906223F49404614F0FCFC15F03AFCA86214F02C
:205AA000A9FA686204F1100133480078000104F114030A5AF280195A71812044428A328155
:205AC00002223868417C3170B2700020B08014F0F8FF0C2290FBF2F20C2101FB1200401D02
:205AE000F07304200BF006F839682A4A2A4B086042608361294A42610120C872A87915F017
:205B000003FC99F80000002801BF386841690A78012A0ED1807A02280BD1DAF8001001F163
:205B20000D0015F071FC20B91D48417941F004014171104C2078C0B999F8001049B119489D
:205B4000006815F0DDFB38680068816941F4802181613868007C0CF0BBFE062020700122AC
:205B6000002102F07CFEFCF749FF0020BDE8F28F540F0020C80F0020D90F0020480E00201F
:205B8000400E0020880E0020680F0020303C0020006E0210040C002002008080516F01004B
:205BA000BC0A00206C0F00202DE9FE4F0422FF2101A814F077FCDFF8581388780024FF280E
:205BC00000F0A38114F014FC054605F217100178012908BF417800F0EB8005F1740005F552
:205BE0009276817B022904BF05F174018C7395F89201022805F1740008BF85F89241017FFE
:205C0000022904BF05F174010C77F18911B1307B0AF0C6F96889BF4F2881FB7997F80AC093
:205C20003A7BF97A787B9C4494448C4405F58D790CEB0008B9F804E0B9F800C00EF1010EAE
:205C4000C444A9F804E0A9F800C0B9F802E097F80AC0F444A9F802C0D6F800C0BCF1000F85
:205C600029D0DFF8B4E2DEF800E00EF10E0ACDF800A04FF01C0A95F806B01AFB0BFADDF8F5
:205C800000B01BF80AA03CF81AB0C3442CF81AB00EF10E0A95F806B04FF01C0E1EFB0BFBC2
:205CA0001AF80BA00CEB4A0C97F80AA0BCF84AE0F244ACF84AA0002B08BF0029DFF85CA20F
:205CC00003D1002A08BF00282BD02989E8892C744118287FA981012804BF688CE883A97982
:205CE0000122072002F0BBFDA346787878B1012105F1740229779078002802BF05F1740124
:205D0000887B002803D1087F08B9688CE883307D002855D0022804BFF87A00284CD1347596
:205D20004EE0A979072002F09AFDEC83B87A40B1297F2C7401294FF0010B27D1688CE883BD
:205D400024E0B9F80600401CA9F806004FF0020B287CD8B1DAF80010AB7995F82EC001F199
:205D600014026969490040F6C4105B0110FB0C1101F5F661D150A879DAF8001001EB4010B7
:205D8000C17C01F0F00141F00401C174A8892989814206D08842A8D2081A41F2AB029042E5
:205DA000A3DA287C08B1052901D0082100E03E21284615F07DFBA8E0787A08B102213175BB
:205DC000F87BC1070DD529683869C86000F59070C860AA79DAF8000000F1140152018C5005
:205DE00013E0DAF80010AB7901F114025B01D05830614948AB7901681C2001F108024343B1
:205E00002968D058C860EC832C77454A50690078810702D5B87B802800D1812005F17406B3
:205E200059463070284604F042FE28460AF01AFF02281BD1F079022805DB01AA39492846DC
:205E40000FF0BEFB0446284615F056FA01285CD020000DD0224601A928460FF07BFF38B941
:205E600028460AF0FFFE012802D14EE001284CD00121284615F03CFA284615F035FAFDF7ED
:205E800045FB012841D028460EF086FCFCF7B6FD254FB988386810B1AA79914203D04FF6D0
:205EA000FD70814231D12149087B14F087FC04002BD084F800B0A8791D4960800A68A87917
:205EC000115C217105F5C9721079607196F90010A171A4F80880B9F80200608114F036FC95
:205EE000050005D1FF204FF0FF312073216109E02878207315F0C4FA0146A86815F0F0F900
:205F000080082061204639688847BDE8F78F00BF780E0020980C0020980E00209C0E0020BE
:205F200080D501009C2B0020800E0020502A0020283C0020D1480278112A00D070472DE9ED
:205F4000F84FCF4A1078002115F0D2FA04000AD1002013F03BF8002013F038F8BDE8F24FF9
:205F6000FF2015F0BDBA04F14C0999F8000008B90121E172401C89F80000C2B2E17DD9F8F5
:205F800004608A4229D2D9F808104A7AB17B277E0120A1F1250300FA03F3A7F12501884007
:205FA000184322EA000000F0070011F09DF92530B073A18BB06800EB8100B060607DC10610
:205FC0000AD5628B99F80010A08B00FB1121B068A63100EB810030664EE104F1280706F1C1
:205FE000900806F173054FF0000A50D1A17F6975E07FA875D9F808205278930710D5E27F13
:20600000D30604D5C91E697500F0EF00A875C6F874A085F800A00022A97D01F0FE0126E1DF
:20602000910608D4F88B00B1F87E2876F88B00B1386AC8F80000D9F808004178CA070DD5CA
:20604000F88B00281CBF386A002807D0C8F80000B97EF88B814238BF08462876E07FC106D3
:206060000CD5B06B397800EB8100B063A18CA63100EB810070670220287003E0C6F874A03E
:2060800085F800A00022E17F01F0FC01EFE0D9F808205278D3071ED5687D811E697501F0C1
:2060A0003F01A87D00F0F700A8758207697504D4891D697540F00200A875A87D410605D51F
:2060C0006A7D511E697500F0BF00A875C8F800A085F818A0D0E0401AC0B20090900740F157
:2060E00083800098012806F1400B3FD1B06BA18C00EB8100B063A07F00F03F00A077687581
:20610000E17FA975D9F8082053785A0704D5801F687501F0FD01A9750023687DF97E00F00B
:206120003F0042189BF80000521CC0F3800192B200F0030015F030F900F59B70A0841E21C9
:20614000A08C90FBF1F18AB2A97D01F0FE01204615F01EF985F800A0F88B00B1F87E28766D
:20616000F88B00B1386AC8F8000085E00228B06BA18C00EB8100B06326D1E07FC10706D53A
:20618000687D811F6975A87D00F0FE00A8750023687DF97E00F03F0042189BF80000521C63
:2061A000C0F3800192B200F0030015F0F5F800F59B70A0840022A97D01F0FE01204615F0BB
:2061C000E7F8787FABF81A00797F0098491C081AC0B201281CDDA28CB16BA63201EB8201F0
:2061E00071670221297014E0B06BA18C00EB8100B063797F0098081AE17FCA06C0B207D520
:20620000A28CB16BA63201EB820171670221297090B3D8F8003097F81BC0E27FA17F634484
:20622000C8F8003022F00108D9F808205278530748BF28F00208920748BF28F0080801281C
:2062400007D1387F2876C6F874A028F0100885F800A001F0C006404615F0A2F800F03F00E7
:206260003043687585F81680002208F0FC012046BDE8F84F15F08CB8BDE8F18FC80F0020ED
:20628000D50F00202DE9F043044685B0084611F801CBC24FC24B3822BCF1070F4FF000098C
:2062A00004F5A47604F1760504F1FD0800F03181BCF10F0F0CD0BCF1110F00F0D080BCF15E
:2062C0001A0F00F0E280BCF11B0F00F0128143E198F800309A0703D40F2188F81C1075E05C
:2062E0002878012804BF68780F280CD0687908B16A7812B12A7B012A07D1580703D40F21D2
:2063000088F81C1062E0232265E010B16878012802D0A87E012807D1580703D40F2188F85C
:206320001C1053E02A2256E008784A7800EB022333808878CA7800EB0223738008794A79EE
:2063400000EB0223B3808879CA7900EB0223F380087A30724A7A887A02EB00237381C87A03
:206360000A7B00EB0223B381487B8A7B00EB0223F381C87B0A7C00EB02233382487C8A7CB0
:2063800000EB02237382C87C0A7D00EB0223B382487D897D00EB0122F28204F5AA700490F4
:2063A00071890391307A029021890191F0880090B38872883188204614F0D6FFC0B198F8A1
:2063C0000000410706D40F2088F81C00204614F0C7FF85E01E220F21204614F0BDFFF0882D
:2063E0000090B3887288A179002010F03DF87DE07088A882B188E9820221F0882974288363
:20640000A5F81290A18EA88AC91DE981618EB0EB510F02BFE88AA18E884202BF288BE18E93
:20642000B0EB111F16D0687900281CBF68781A2803D00F21A972FE210DE0FC21204615F0F3
:206440002FF8F0880090B38872883188A07914F07FFF4BE00021204615F022F846E00F7806
:2064600037761A2F4978717676D11868A779811D574301F807901968A37912FB03F20A44E2
:2064800082F80990A179707E5DE094F806C018680E7812FB0CFC604400F12D0C06F01F0153
:2064A0009CF80000B60940B19CF80100F040C00703D594F89601042805D120221A2120462C
:2064C00014F04AFF12E08CF80310A179186812FB01F28118204681F82F60002108F012FD1D
:2064E00020B938784FF4804109F05AFD4FF0010936E0A179186851430144888908B981F8A2
:206500000690A179186812FB01F2811881F80990ECE709780F2919D01A291DD1A179186860
:20652000514301441A2081F80690A1791B6812FB01F2991881F8099098F8021001F0FB014A
:2065400088F80210A1790CF087FCCFE798F8001001F0FD0188F800100146204614F0BCFED0
:2065600068781A2815D1A878182818BF002803D0152818BFFC280CD12E78204614F0D0FEEE
:20658000012E03BF1A20A872FD211A21204614F087FF484605B0BDE8F08300BFC70F00205D
:2065A000103C00202DE9F8439D4C9E499E4E20700A22002008600D239C4840F21121027034
:2065C0004380818084B09A4A9A48106037789A480770FF2F7178417008BFFF29B2788270B2
:2065E000F378C370357905717679467114D1FF2A08BFFF2B10D1FF2D08BFFF2E0CD18F497E
:206600000A7802704B7843708A788270CB78C3700A7902714979417189490278894D8A4E42
:206620008A4F0A7043784B7082788A70C378CB7002790A714079864A4871FF202870687060
:20664000A870E87028716871002082490880F06B8149407808708149F06B007808701388E0
:206660007F4880490380F06BC06C08607E49F06B90F83C0008707D49F06B90F83D0008705C
:20668000F06B406901797A484A1E0270F06B7949C0783870F06B8069086008B912F096FCE2
:2066A000F06B7549C069086008B912F08FFCF06B416D72480C2213F0EBFE14F009FEF06B9F
:2066C0006F49006A086008B912F080FCF06BDFF8B481406AC8F8000008B912F077FCF06B8F
:2066E0006949806A086008B912F070FCF06B6749C06D00283CD001220A75F06BC06D026867
:206700001378C3F3400028B1C3F3C00000280CBF01200220487500208860C8600861F06BC2
:20672000C06D426890780870F06BC06D4268D0784870F06BC06D426813788B70F06BC06D90
:2067400042685078C870F06BC06D426810790871F06BC06D426850794871F06BC06D426875
:2067600090798871F06BC06D4268D079C87101E000220A7501F0DEFA07280AD107F0E6F839
:2067800020784FF4804109F00BFC002012F01EFC43E03F480168884781460DF041FED8F86C
:2067A000000001688847684614F018F8D8F8002004208DF80000694652F8043F002098470B
:2067C0003449086010F014F8F068334A01883878324B014311804846196888470C213048E5
:2067E00014F012FA284614F06FFD14F069FD2D4800214FF6FF7201608280F06B90F8581047
:206800002948006813F072FF0121FF2014F0F8F920784FF4005109F0C3FB05B0BDE8F08345
:20682000C70F0020380F0020D04F0050700E00203C0F0020B63F0050400E0020E812005086
:20684000500E0020480E002080D50100C40F00202E2A00209E0F0020C60F0020D40F0020BE
:20686000863C0020143C0020973C0020983C0020CB0F0020200F0020240F0020D03B002018
:20688000280F00202C0F0020300F0020343B0020CC2400201C3C0020A00F0020D0240020ED
:2068A000FC0D0020800E0020303C00202DE9F84F05004AD0AA480078092818BF0A2804D081
:2068C0000B281CBF0C280D2801D1212046E1A878002114F00DFE040008BF4220F6D0A14ED5
:2068E000A9789F4A3170107810B9A8789E49087004F14807F868417801F01201022902BFD0
:20690000786900280C2012D0607AF0B1A07B012804D1B5F8030008B1812816DA6878402882
